{
  "contractName": "RahatWallet",
  "abi": [
    {
      "inputs": [
        {
          "internalType": "address",
          "name": "_admin",
          "type": "address"
        }
      ],
      "stateMutability": "nonpayable",
      "type": "constructor"
    },
    {
      "inputs": [
        {
          "internalType": "address",
          "name": "_account",
          "type": "address"
        }
      ],
      "name": "addOwner",
      "outputs": [
        {
          "internalType": "bool",
          "name": "",
          "type": "bool"
        }
      ],
      "stateMutability": "nonpayable",
      "type": "function"
    },
    {
      "inputs": [
        {
          "internalType": "address",
          "name": "_token",
          "type": "address"
        },
        {
          "internalType": "address",
          "name": "_spender",
          "type": "address"
        },
        {
          "internalType": "uint256",
          "name": "_amount",
          "type": "uint256"
        }
      ],
      "name": "approveToken",
      "outputs": [],
      "stateMutability": "nonpayable",
      "type": "function"
    },
    {
      "inputs": [
        {
          "internalType": "address",
          "name": "_token",
          "type": "address"
        },
        {
          "internalType": "address",
          "name": "_from",
          "type": "address"
        },
        {
          "internalType": "uint256",
          "name": "_amount",
          "type": "uint256"
        }
      ],
      "name": "claimToken",
      "outputs": [],
      "stateMutability": "nonpayable",
      "type": "function"
    },
    {
      "inputs": [
        {
          "internalType": "address",
          "name": "_token",
          "type": "address"
        },
        {
          "internalType": "address",
          "name": "_from",
          "type": "address"
        }
      ],
      "name": "getAllowanceAndBalance",
      "outputs": [
        {
          "internalType": "uint256",
          "name": "allowance",
          "type": "uint256"
        },
        {
          "internalType": "uint256",
          "name": "balance",
          "type": "uint256"
        }
      ],
      "stateMutability": "view",
      "type": "function"
    },
    {
      "inputs": [],
      "name": "listAdmins",
      "outputs": [
        {
          "internalType": "address[]",
          "name": "",
          "type": "address[]"
        }
      ],
      "stateMutability": "view",
      "type": "function"
    },
    {
      "inputs": [
        {
          "internalType": "address",
          "name": "",
          "type": "address"
        }
      ],
      "name": "owner",
      "outputs": [
        {
          "internalType": "bool",
          "name": "",
          "type": "bool"
        }
      ],
      "stateMutability": "view",
      "type": "function"
    },
    {
      "inputs": [
        {
          "internalType": "address",
          "name": "_account",
          "type": "address"
        }
      ],
      "name": "removeOwner",
      "outputs": [
        {
          "internalType": "bool",
          "name": "",
          "type": "bool"
        }
      ],
      "stateMutability": "nonpayable",
      "type": "function"
    },
    {
      "inputs": [
        {
          "internalType": "address",
          "name": "_token",
          "type": "address"
        },
        {
          "internalType": "address",
          "name": "_from",
          "type": "address"
        },
        {
          "internalType": "address",
          "name": "_to",
          "type": "address"
        },
        {
          "internalType": "uint256",
          "name": "_amount",
          "type": "uint256"
        }
      ],
      "name": "transferFromToken",
      "outputs": [],
      "stateMutability": "nonpayable",
      "type": "function"
    },
    {
      "inputs": [
        {
          "internalType": "address",
          "name": "_token",
          "type": "address"
        },
        {
          "internalType": "address",
          "name": "_to",
          "type": "address"
        },
        {
          "internalType": "uint256",
          "name": "_amount",
          "type": "uint256"
        }
      ],
      "name": "transferToken",
      "outputs": [],
      "stateMutability": "nonpayable",
      "type": "function"
    }
  ],
  "bytecode": "0x608060405234801561001057600080fd5b50604051610a2b380380610a2b83398101604081905261002f91610056565b6001600160a01b03166000908152600260205260409020805460ff19166001179055610086565b60006020828403121561006857600080fd5b81516001600160a01b038116811461007f57600080fd5b9392505050565b610996806100956000396000f3fe608060405234801561001057600080fd5b50600436106100835760003560e01c8063125bfb6614610088578063173825d91461009d5780634937b174146100c5578063666e1b39146100ed5780637065cb4814610110578063a591afbe14610123578063da3e339714610138578063f5537ede1461014b578063fb3c0d701461015e575b600080fd5b61009b61009636600461073b565b610171565b005b6100b06100ab366004610777565b610222565b60405190151581526020015b60405180910390f35b6100d86100d3366004610792565b610286565b604080519283526020830191909152016100bc565b6100b06100fb366004610777565b60026020526000908152604090205460ff1681565b6100b061011e366004610777565b61036f565b61012b6103cb565b6040516100bc91906107bc565b61009b61014636600461073b565b6103dc565b61009b61015936600461073b565b610439565b61009b61016c366004610809565b610496565b3360009081526002602052604090205460ff166101a95760405162461bcd60e51b81526004016101a090610854565b60405180910390fd5b6040516323b872dd60e01b81526001600160a01b038416906323b872dd906101d99085903090869060040161089b565b6020604051808303816000875af11580156101f8573d6000803e3d6000fd5b505050506040513d601f19601f8201168201806040525081019061021c91906108bf565b50505050565b3360009081526002602052604081205460ff166102515760405162461bcd60e51b81526004016101a090610854565b6001600160a01b0382166000908152600260205260408120805460ff1916905561027b908361053f565b50600190505b919050565b604051636eb1769f60e11b81526001600160a01b038281166004830152306024830152600091829185169063dd62ed3e90604401602060405180830381865afa1580156102d7573d6000803e3d6000fd5b505050506040513d601f19601f820116820180604052508101906102fb91906108e1565b6040516370a0823160e01b81523060048201529092506001600160a01b038516906370a0823190602401602060405180830381865afa158015610342573d6000803e3d6000fd5b505050506040513d601f19601f8201168201806040525081019061036691906108e1565b90509250929050565b3360009081526002602052604081205460ff1661039e5760405162461bcd60e51b81526004016101a090610854565b6001600160a01b0382166000908152600260205260408120805460ff1916600117905561027b908361055d565b60606103d76000610572565b905090565b3360009081526002602052604090205460ff1661040b5760405162461bcd60e51b81526004016101a090610854565b60405163095ea7b360e01b81526001600160a01b0384169063095ea7b3906101d990859085906004016108fa565b3360009081526002602052604090205460ff166104685760405162461bcd60e51b81526004016101a090610854565b60405163a9059cbb60e01b81526001600160a01b0384169063a9059cbb906101d990859085906004016108fa565b3360009081526002602052604090205460ff166104c55760405162461bcd60e51b81526004016101a090610854565b6040516323b872dd60e01b81526001600160a01b038516906323b872dd906104f59086908690869060040161089b565b6020604051808303816000875af1158015610514573d6000803e3d6000fd5b505050506040513d601f19601f8201168201806040525081019061053891906108bf565b5050505050565b6000610554836001600160a01b038416610586565b90505b92915050565b6000610554836001600160a01b038416610679565b6060600061057f836106c8565b9392505050565b6000818152600183016020526040812054801561066f5760006105aa600183610913565b85549091506000906105be90600190610913565b90508181146106235760008660000182815481106105de576105de610934565b906000526020600020015490508087600001848154811061060157610601610934565b6000918252602080832090910192909255918252600188019052604090208390555b85548690806106345761063461094a565b600190038181906000526020600020016000905590558560010160008681526020019081526020016000206000905560019350505050610557565b6000915050610557565b60008181526001830160205260408120546106c057508154600181810184556000848152602080822090930184905584548482528286019093526040902091909155610557565b506000610557565b60608160000180548060200260200160405190810160405280929190818152602001828054801561071857602002820191906000526020600020905b815481526020019060010190808311610704575b50505050509050919050565b80356001600160a01b038116811461028157600080fd5b60008060006060848603121561075057600080fd5b61075984610724565b925061076760208501610724565b9150604084013590509250925092565b60006020828403121561078957600080fd5b61055482610724565b600080604083850312156107a557600080fd5b6107ae83610724565b915061036660208401610724565b6020808252825182820181905260009190848201906040850190845b818110156107fd5783516001600160a01b0316835292840192918401916001016107d8565b50909695505050505050565b6000806000806080858703121561081f57600080fd5b61082885610724565b935061083660208601610724565b925061084460408601610724565b9396929550929360600135925050565b60208082526027908201527f4f6e6c79206f776e65722063616e20657865637574652074686973207472616e60408201526639b0b1ba34b7b760c91b606082015260800190565b6001600160a01b039384168152919092166020820152604081019190915260600190565b6000602082840312156108d157600080fd5b8151801515811461057f57600080fd5b6000602082840312156108f357600080fd5b5051919050565b6001600160a01b03929092168252602082015260400190565b8181038181111561055757634e487b7160e01b600052601160045260246000fd5b634e487b7160e01b600052603260045260246000fd5b634e487b7160e01b600052603160045260246000fdfea264697066735822122068171fbd245170a63f78e27bbb798034c7e46d1bf235bab6dc8f67433fda987764736f6c63430008100033",
  "immutableReferences": {},
  "source": "//SPDX-License-Identifier: LGPL-3.0\r\n\r\npragma solidity ^0.8.16;\r\n\r\nimport \"../libraries/AbstractERC20Func.sol\";\r\n\r\n/// @title Donor contract to create tokens\r\n/// @author Rumsan Associates\r\n/// @notice You can use this contract to manage Rahat tokens and projects\r\n/// @dev All function calls are only executed by contract owner\r\n\r\ncontract RahatWallet is AbstractERC20Func {\r\n  constructor(\r\n    address _admin\r\n  ) {\r\n    owner[_admin] = true;\r\n  }\r\n}\r\n",
  "sourcePath": "S:\\Projects\\rahat\\unicef-np\\rahat-contracts\\src\\contracts\\RahatWallet.sol",
  "compiler": {
    "name": "solc",
    "version": "0.8.16+commit.07a7930e.Emscripten.clang"
  },
  "schemaVersion": "3.4.10",
  "updatedAt": "2022-12-01T18:50:58.380Z",
  "devdoc": {
    "author": "Rumsan Associates",
    "details": "All function calls are only executed by contract owner",
    "kind": "dev",
    "methods": {
      "addOwner(address)": {
        "params": {
          "_account": "address of new owner"
        }
      },
      "removeOwner(address)": {
        "params": {
          "_account": "address of existing owner"
        }
      }
    },
    "title": "Donor contract to create tokens",
    "version": 1
  },
  "userdoc": {
    "kind": "user",
    "methods": {
      "addOwner(address)": {
        "notice": "Add an account to the owner role"
      },
      "removeOwner(address)": {
        "notice": "Remove an account from the owner role"
      }
    },
    "notice": "You can use this contract to manage Rahat tokens and projects",
    "version": 1
  }
}