{
  "contractName": "Rahat",
  "abi": [
    {
      "inputs": [
        {
          "internalType": "contract RahatERC20",
          "name": "_erc20",
          "type": "address"
        },
        {
          "internalType": "contract RahatRegistry",
          "name": "_registry",
          "type": "address"
        },
        {
          "internalType": "contract RahatTriggerResponse",
          "name": "_triggerResponse",
          "type": "address"
        },
        {
          "internalType": "address",
          "name": "_admin",
          "type": "address"
        }
      ],
      "stateMutability": "nonpayable",
      "type": "constructor"
    },
    {
      "anonymous": false,
      "inputs": [
        {
          "indexed": true,
          "internalType": "address",
          "name": "vendor",
          "type": "address"
        },
        {
          "indexed": true,
          "internalType": "uint256",
          "name": "beneficiary",
          "type": "uint256"
        },
        {
          "indexed": false,
          "internalType": "uint256",
          "name": "amount",
          "type": "uint256"
        }
      ],
      "name": "ClaimAcquiredERC20",
      "type": "event"
    },
    {
      "anonymous": false,
      "inputs": [
        {
          "indexed": true,
          "internalType": "address",
          "name": "vendor",
          "type": "address"
        },
        {
          "indexed": true,
          "internalType": "uint256",
          "name": "phone",
          "type": "uint256"
        },
        {
          "indexed": false,
          "internalType": "uint256",
          "name": "amount",
          "type": "uint256"
        }
      ],
      "name": "ClaimApproved",
      "type": "event"
    },
    {
      "anonymous": false,
      "inputs": [
        {
          "indexed": true,
          "internalType": "address",
          "name": "vendor",
          "type": "address"
        },
        {
          "indexed": true,
          "internalType": "uint256",
          "name": "beneficiary",
          "type": "uint256"
        },
        {
          "indexed": false,
          "internalType": "uint256",
          "name": "amount",
          "type": "uint256"
        }
      ],
      "name": "ClaimedERC20",
      "type": "event"
    },
    {
      "anonymous": false,
      "inputs": [
        {
          "indexed": false,
          "internalType": "bytes",
          "name": "signature",
          "type": "bytes"
        },
        {
          "indexed": false,
          "internalType": "bytes32",
          "name": "digest",
          "type": "bytes32"
        },
        {
          "indexed": false,
          "internalType": "address",
          "name": "expectedSigner",
          "type": "address"
        },
        {
          "indexed": false,
          "internalType": "address",
          "name": "recoveredSigner",
          "type": "address"
        }
      ],
      "name": "InvalidSignature",
      "type": "event"
    },
    {
      "anonymous": false,
      "inputs": [
        {
          "indexed": true,
          "internalType": "bytes32",
          "name": "projectId",
          "type": "bytes32"
        },
        {
          "indexed": true,
          "internalType": "uint256",
          "name": "phone",
          "type": "uint256"
        },
        {
          "indexed": false,
          "internalType": "uint256",
          "name": "amount",
          "type": "uint256"
        }
      ],
      "name": "IssuedERC20",
      "type": "event"
    },
    {
      "anonymous": false,
      "inputs": [
        {
          "indexed": false,
          "internalType": "address",
          "name": "",
          "type": "address"
        },
        {
          "indexed": false,
          "internalType": "uint256",
          "name": "",
          "type": "uint256"
        }
      ],
      "name": "Received",
      "type": "event"
    },
    {
      "anonymous": false,
      "inputs": [
        {
          "indexed": true,
          "internalType": "bytes32",
          "name": "role",
          "type": "bytes32"
        },
        {
          "indexed": true,
          "internalType": "bytes32",
          "name": "previousAdminRole",
          "type": "bytes32"
        },
        {
          "indexed": true,
          "internalType": "bytes32",
          "name": "newAdminRole",
          "type": "bytes32"
        }
      ],
      "name": "RoleAdminChanged",
      "type": "event"
    },
    {
      "anonymous": false,
      "inputs": [
        {
          "indexed": true,
          "internalType": "bytes32",
          "name": "role",
          "type": "bytes32"
        },
        {
          "indexed": true,
          "internalType": "address",
          "name": "account",
          "type": "address"
        },
        {
          "indexed": true,
          "internalType": "address",
          "name": "sender",
          "type": "address"
        }
      ],
      "name": "RoleGranted",
      "type": "event"
    },
    {
      "anonymous": false,
      "inputs": [
        {
          "indexed": true,
          "internalType": "bytes32",
          "name": "role",
          "type": "bytes32"
        },
        {
          "indexed": true,
          "internalType": "address",
          "name": "account",
          "type": "address"
        },
        {
          "indexed": true,
          "internalType": "address",
          "name": "sender",
          "type": "address"
        }
      ],
      "name": "RoleRevoked",
      "type": "event"
    },
    {
      "inputs": [],
      "name": "CREATE_CLAIM",
      "outputs": [
        {
          "internalType": "bytes32",
          "name": "",
          "type": "bytes32"
        }
      ],
      "stateMutability": "view",
      "type": "function"
    },
    {
      "inputs": [],
      "name": "DEFAULT_ADMIN_ROLE",
      "outputs": [
        {
          "internalType": "bytes32",
          "name": "",
          "type": "bytes32"
        }
      ],
      "stateMutability": "view",
      "type": "function"
    },
    {
      "inputs": [],
      "name": "GET_TOKENS_FROM_CLAIM",
      "outputs": [
        {
          "internalType": "bytes32",
          "name": "",
          "type": "bytes32"
        }
      ],
      "stateMutability": "view",
      "type": "function"
    },
    {
      "inputs": [],
      "name": "ISSUE_TOKEN",
      "outputs": [
        {
          "internalType": "bytes32",
          "name": "",
          "type": "bytes32"
        }
      ],
      "stateMutability": "view",
      "type": "function"
    },
    {
      "inputs": [],
      "name": "MANAGER_ROLE",
      "outputs": [
        {
          "internalType": "bytes32",
          "name": "",
          "type": "bytes32"
        }
      ],
      "stateMutability": "view",
      "type": "function"
    },
    {
      "inputs": [],
      "name": "MOBILIZER_ROLE",
      "outputs": [
        {
          "internalType": "bytes32",
          "name": "",
          "type": "bytes32"
        }
      ],
      "stateMutability": "view",
      "type": "function"
    },
    {
      "inputs": [],
      "name": "SERVER_ROLE",
      "outputs": [
        {
          "internalType": "bytes32",
          "name": "",
          "type": "bytes32"
        }
      ],
      "stateMutability": "view",
      "type": "function"
    },
    {
      "inputs": [],
      "name": "VENDOR_ROLE",
      "outputs": [
        {
          "internalType": "bytes32",
          "name": "",
          "type": "bytes32"
        }
      ],
      "stateMutability": "view",
      "type": "function"
    },
    {
      "inputs": [
        {
          "internalType": "address",
          "name": "_account",
          "type": "address"
        }
      ],
      "name": "addOwner",
      "outputs": [
        {
          "internalType": "bool",
          "name": "",
          "type": "bool"
        }
      ],
      "stateMutability": "nonpayable",
      "type": "function"
    },
    {
      "inputs": [
        {
          "internalType": "address",
          "name": "_token",
          "type": "address"
        },
        {
          "internalType": "address",
          "name": "_spender",
          "type": "address"
        },
        {
          "internalType": "uint256",
          "name": "_amount",
          "type": "uint256"
        }
      ],
      "name": "approveToken",
      "outputs": [],
      "stateMutability": "nonpayable",
      "type": "function"
    },
    {
      "inputs": [],
      "name": "cashToken",
      "outputs": [
        {
          "internalType": "contract RahatERC20",
          "name": "",
          "type": "address"
        }
      ],
      "stateMutability": "view",
      "type": "function"
    },
    {
      "inputs": [
        {
          "internalType": "address",
          "name": "_token",
          "type": "address"
        },
        {
          "internalType": "address",
          "name": "_from",
          "type": "address"
        },
        {
          "internalType": "uint256",
          "name": "_amount",
          "type": "uint256"
        }
      ],
      "name": "claimToken",
      "outputs": [],
      "stateMutability": "nonpayable",
      "type": "function"
    },
    {
      "inputs": [],
      "name": "erc20",
      "outputs": [
        {
          "internalType": "contract RahatERC20",
          "name": "",
          "type": "address"
        }
      ],
      "stateMutability": "view",
      "type": "function"
    },
    {
      "inputs": [
        {
          "internalType": "uint256",
          "name": "",
          "type": "uint256"
        }
      ],
      "name": "erc20Balance",
      "outputs": [
        {
          "internalType": "uint256",
          "name": "",
          "type": "uint256"
        }
      ],
      "stateMutability": "view",
      "type": "function"
    },
    {
      "inputs": [
        {
          "internalType": "uint256",
          "name": "",
          "type": "uint256"
        }
      ],
      "name": "erc20Issued",
      "outputs": [
        {
          "internalType": "uint256",
          "name": "",
          "type": "uint256"
        }
      ],
      "stateMutability": "view",
      "type": "function"
    },
    {
      "inputs": [
        {
          "internalType": "address",
          "name": "",
          "type": "address"
        }
      ],
      "name": "erc20IssuedBy",
      "outputs": [
        {
          "internalType": "uint256",
          "name": "",
          "type": "uint256"
        }
      ],
      "stateMutability": "view",
      "type": "function"
    },
    {
      "inputs": [
        {
          "internalType": "address",
          "name": "_token",
          "type": "address"
        },
        {
          "internalType": "address",
          "name": "_from",
          "type": "address"
        }
      ],
      "name": "getAllowanceAndBalance",
      "outputs": [
        {
          "internalType": "uint256",
          "name": "allowance",
          "type": "uint256"
        },
        {
          "internalType": "uint256",
          "name": "balance",
          "type": "uint256"
        }
      ],
      "stateMutability": "view",
      "type": "function"
    },
    {
      "inputs": [
        {
          "internalType": "bytes32",
          "name": "role",
          "type": "bytes32"
        }
      ],
      "name": "getRoleAdmin",
      "outputs": [
        {
          "internalType": "bytes32",
          "name": "",
          "type": "bytes32"
        }
      ],
      "stateMutability": "view",
      "type": "function"
    },
    {
      "inputs": [
        {
          "internalType": "bytes32",
          "name": "role",
          "type": "bytes32"
        },
        {
          "internalType": "address",
          "name": "account",
          "type": "address"
        }
      ],
      "name": "grantRole",
      "outputs": [],
      "stateMutability": "nonpayable",
      "type": "function"
    },
    {
      "inputs": [
        {
          "internalType": "bytes32",
          "name": "role",
          "type": "bytes32"
        },
        {
          "internalType": "address",
          "name": "account",
          "type": "address"
        }
      ],
      "name": "hasRole",
      "outputs": [
        {
          "internalType": "bool",
          "name": "",
          "type": "bool"
        }
      ],
      "stateMutability": "view",
      "type": "function"
    },
    {
      "inputs": [
        {
          "internalType": "uint256",
          "name": "",
          "type": "uint256"
        }
      ],
      "name": "isBanked",
      "outputs": [
        {
          "internalType": "bool",
          "name": "",
          "type": "bool"
        }
      ],
      "stateMutability": "view",
      "type": "function"
    },
    {
      "inputs": [],
      "name": "listAdmins",
      "outputs": [
        {
          "internalType": "address[]",
          "name": "",
          "type": "address[]"
        }
      ],
      "stateMutability": "view",
      "type": "function"
    },
    {
      "inputs": [
        {
          "internalType": "bytes[]",
          "name": "data",
          "type": "bytes[]"
        }
      ],
      "name": "multicall",
      "outputs": [
        {
          "internalType": "bytes[]",
          "name": "results",
          "type": "bytes[]"
        }
      ],
      "stateMutability": "nonpayable",
      "type": "function"
    },
    {
      "inputs": [
        {
          "internalType": "address",
          "name": "",
          "type": "address"
        }
      ],
      "name": "nonces",
      "outputs": [
        {
          "internalType": "uint256",
          "name": "",
          "type": "uint256"
        }
      ],
      "stateMutability": "view",
      "type": "function"
    },
    {
      "inputs": [
        {
          "internalType": "address",
          "name": "",
          "type": "address"
        }
      ],
      "name": "owner",
      "outputs": [
        {
          "internalType": "bool",
          "name": "",
          "type": "bool"
        }
      ],
      "stateMutability": "view",
      "type": "function"
    },
    {
      "inputs": [
        {
          "internalType": "address",
          "name": "",
          "type": "address"
        },
        {
          "internalType": "bytes32",
          "name": "",
          "type": "bytes32"
        }
      ],
      "name": "recentERC20Claims",
      "outputs": [
        {
          "internalType": "uint256",
          "name": "amount",
          "type": "uint256"
        },
        {
          "internalType": "bytes32",
          "name": "otpHash",
          "type": "bytes32"
        },
        {
          "internalType": "bool",
          "name": "isReleased",
          "type": "bool"
        },
        {
          "internalType": "uint256",
          "name": "date",
          "type": "uint256"
        }
      ],
      "stateMutability": "view",
      "type": "function"
    },
    {
      "inputs": [],
      "name": "registry",
      "outputs": [
        {
          "internalType": "contract RahatRegistry",
          "name": "",
          "type": "address"
        }
      ],
      "stateMutability": "view",
      "type": "function"
    },
    {
      "inputs": [
        {
          "internalType": "bytes32",
          "name": "",
          "type": "bytes32"
        }
      ],
      "name": "remainingProjectErc20Balances",
      "outputs": [
        {
          "internalType": "uint256",
          "name": "",
          "type": "uint256"
        }
      ],
      "stateMutability": "view",
      "type": "function"
    },
    {
      "inputs": [
        {
          "internalType": "address",
          "name": "_account",
          "type": "address"
        }
      ],
      "name": "removeOwner",
      "outputs": [
        {
          "internalType": "bool",
          "name": "",
          "type": "bool"
        }
      ],
      "stateMutability": "nonpayable",
      "type": "function"
    },
    {
      "inputs": [
        {
          "internalType": "bytes32",
          "name": "role",
          "type": "bytes32"
        },
        {
          "internalType": "address",
          "name": "account",
          "type": "address"
        }
      ],
      "name": "renounceRole",
      "outputs": [],
      "stateMutability": "nonpayable",
      "type": "function"
    },
    {
      "inputs": [
        {
          "internalType": "bytes32",
          "name": "role",
          "type": "bytes32"
        },
        {
          "internalType": "address",
          "name": "account",
          "type": "address"
        }
      ],
      "name": "revokeRole",
      "outputs": [],
      "stateMutability": "nonpayable",
      "type": "function"
    },
    {
      "inputs": [
        {
          "internalType": "bytes32",
          "name": "",
          "type": "bytes32"
        }
      ],
      "name": "totalProjectErc20Issued",
      "outputs": [
        {
          "internalType": "uint256",
          "name": "",
          "type": "uint256"
        }
      ],
      "stateMutability": "view",
      "type": "function"
    },
    {
      "inputs": [
        {
          "internalType": "address",
          "name": "_token",
          "type": "address"
        },
        {
          "internalType": "address",
          "name": "_from",
          "type": "address"
        },
        {
          "internalType": "address",
          "name": "_to",
          "type": "address"
        },
        {
          "internalType": "uint256",
          "name": "_amount",
          "type": "uint256"
        }
      ],
      "name": "transferFromToken",
      "outputs": [],
      "stateMutability": "nonpayable",
      "type": "function"
    },
    {
      "inputs": [
        {
          "internalType": "address",
          "name": "_token",
          "type": "address"
        },
        {
          "internalType": "address",
          "name": "_to",
          "type": "address"
        },
        {
          "internalType": "uint256",
          "name": "_amount",
          "type": "uint256"
        }
      ],
      "name": "transferToken",
      "outputs": [],
      "stateMutability": "nonpayable",
      "type": "function"
    },
    {
      "inputs": [],
      "name": "triggerResponse",
      "outputs": [
        {
          "internalType": "contract RahatTriggerResponse",
          "name": "",
          "type": "address"
        }
      ],
      "stateMutability": "view",
      "type": "function"
    },
    {
      "stateMutability": "payable",
      "type": "receive"
    },
    {
      "inputs": [
        {
          "internalType": "bytes4",
          "name": "interfaceId",
          "type": "bytes4"
        }
      ],
      "name": "supportsInterface",
      "outputs": [
        {
          "internalType": "bool",
          "name": "",
          "type": "bool"
        }
      ],
      "stateMutability": "view",
      "type": "function"
    },
    {
      "inputs": [
        {
          "internalType": "address",
          "name": "_account",
          "type": "address"
        }
      ],
      "name": "addAdmin",
      "outputs": [],
      "stateMutability": "nonpayable",
      "type": "function"
    },
    {
      "inputs": [
        {
          "internalType": "address",
          "name": "_account",
          "type": "address"
        }
      ],
      "name": "isAdmin",
      "outputs": [
        {
          "internalType": "bool",
          "name": "",
          "type": "bool"
        }
      ],
      "stateMutability": "view",
      "type": "function"
    },
    {
      "inputs": [
        {
          "internalType": "address",
          "name": "_account",
          "type": "address"
        }
      ],
      "name": "addServer",
      "outputs": [],
      "stateMutability": "nonpayable",
      "type": "function"
    },
    {
      "inputs": [
        {
          "internalType": "address payable",
          "name": "_account",
          "type": "address"
        }
      ],
      "name": "addVendor",
      "outputs": [
        {
          "internalType": "address",
          "name": "",
          "type": "address"
        }
      ],
      "stateMutability": "nonpayable",
      "type": "function"
    },
    {
      "inputs": [
        {
          "internalType": "address",
          "name": "_account",
          "type": "address"
        }
      ],
      "name": "isVendor",
      "outputs": [
        {
          "internalType": "bool",
          "name": "",
          "type": "bool"
        }
      ],
      "stateMutability": "view",
      "type": "function"
    },
    {
      "inputs": [],
      "name": "listVendors",
      "outputs": [
        {
          "internalType": "address[]",
          "name": "",
          "type": "address[]"
        }
      ],
      "stateMutability": "view",
      "type": "function"
    },
    {
      "inputs": [
        {
          "internalType": "address",
          "name": "_account",
          "type": "address"
        },
        {
          "internalType": "string",
          "name": "_projectId",
          "type": "string"
        }
      ],
      "name": "addMobilizer",
      "outputs": [],
      "stateMutability": "nonpayable",
      "type": "function"
    },
    {
      "inputs": [
        {
          "internalType": "uint256",
          "name": "_phone",
          "type": "uint256"
        },
        {
          "internalType": "bool",
          "name": "_isBanked",
          "type": "bool"
        }
      ],
      "name": "setAsBankedBeneficiary",
      "outputs": [],
      "stateMutability": "nonpayable",
      "type": "function"
    },
    {
      "inputs": [
        {
          "internalType": "uint256",
          "name": "_phone",
          "type": "uint256"
        },
        {
          "internalType": "bytes32",
          "name": "_projectId",
          "type": "bytes32"
        }
      ],
      "name": "suspendBeneficiary",
      "outputs": [],
      "stateMutability": "nonpayable",
      "type": "function"
    },
    {
      "inputs": [
        {
          "internalType": "bytes32",
          "name": "_projectId",
          "type": "bytes32"
        },
        {
          "internalType": "uint256",
          "name": "_projectCapital",
          "type": "uint256"
        }
      ],
      "name": "updateProjectBudget",
      "outputs": [],
      "stateMutability": "nonpayable",
      "type": "function"
    },
    {
      "inputs": [
        {
          "internalType": "bytes32",
          "name": "_projectId",
          "type": "bytes32"
        }
      ],
      "name": "getProjectBalance",
      "outputs": [
        {
          "internalType": "uint256",
          "name": "_balance",
          "type": "uint256"
        }
      ],
      "stateMutability": "view",
      "type": "function"
    },
    {
      "inputs": [
        {
          "internalType": "string",
          "name": "_projectId",
          "type": "string"
        },
        {
          "internalType": "uint256",
          "name": "_phone",
          "type": "uint256"
        },
        {
          "internalType": "uint256",
          "name": "_amount",
          "type": "uint256"
        }
      ],
      "name": "issueERC20ToBeneficiary",
      "outputs": [],
      "stateMutability": "nonpayable",
      "type": "function"
    },
    {
      "inputs": [
        {
          "internalType": "uint256",
          "name": "_phone",
          "type": "uint256"
        },
        {
          "internalType": "uint256",
          "name": "_tokens",
          "type": "uint256"
        }
      ],
      "name": "createERC20Claim",
      "outputs": [],
      "stateMutability": "nonpayable",
      "type": "function"
    },
    {
      "inputs": [
        {
          "internalType": "address",
          "name": "_vendor",
          "type": "address"
        },
        {
          "internalType": "uint256",
          "name": "_phone",
          "type": "uint256"
        },
        {
          "internalType": "bytes32",
          "name": "_otpHash",
          "type": "bytes32"
        },
        {
          "internalType": "uint256",
          "name": "_timeToLive",
          "type": "uint256"
        }
      ],
      "name": "approveERC20Claim",
      "outputs": [],
      "stateMutability": "nonpayable",
      "type": "function"
    },
    {
      "inputs": [
        {
          "internalType": "uint256",
          "name": "_phone",
          "type": "uint256"
        },
        {
          "internalType": "string",
          "name": "_otp",
          "type": "string"
        }
      ],
      "name": "getERC20FromClaim",
      "outputs": [],
      "stateMutability": "nonpayable",
      "type": "function"
    },
    {
      "inputs": [
        {
          "internalType": "uint256",
          "name": "_phone",
          "type": "uint256"
        },
        {
          "internalType": "address",
          "name": "_vendorAddress",
          "type": "address"
        },
        {
          "internalType": "uint256",
          "name": "_amount",
          "type": "uint256"
        }
      ],
      "name": "transferTokenToVendorByAdmin",
      "outputs": [],
      "stateMutability": "nonpayable",
      "type": "function"
    },
    {
      "inputs": [
        {
          "internalType": "address",
          "name": "_vendorAddress",
          "type": "address"
        },
        {
          "internalType": "uint256",
          "name": "_amount",
          "type": "uint256"
        }
      ],
      "name": "transferCashToVendor",
      "outputs": [],
      "stateMutability": "nonpayable",
      "type": "function"
    },
    {
      "inputs": [
        {
          "internalType": "address",
          "name": "_token",
          "type": "address"
        },
        {
          "internalType": "address",
          "name": "_from",
          "type": "address"
        },
        {
          "internalType": "bytes32",
          "name": "_projectId",
          "type": "bytes32"
        },
        {
          "internalType": "uint256",
          "name": "_amount",
          "type": "uint256"
        }
      ],
      "name": "claimTokenForProject",
      "outputs": [],
      "stateMutability": "nonpayable",
      "type": "function"
    },
    {
      "inputs": [
        {
          "internalType": "bytes32",
          "name": "_projectId",
          "type": "bytes32"
        },
        {
          "internalType": "address",
          "name": "_allowanceFrom",
          "type": "address"
        }
      ],
      "name": "projectBalance",
      "outputs": [
        {
          "internalType": "uint256",
          "name": "totalBudget",
          "type": "uint256"
        },
        {
          "internalType": "uint256",
          "name": "cashAllowance",
          "type": "uint256"
        },
        {
          "internalType": "uint256",
          "name": "cashBalance",
          "type": "uint256"
        },
        {
          "internalType": "uint256",
          "name": "tokenBalance",
          "type": "uint256"
        }
      ],
      "stateMutability": "view",
      "type": "function"
    },
    {
      "inputs": [
        {
          "internalType": "address",
          "name": "_vendorAddress",
          "type": "address"
        }
      ],
      "name": "vendorBalance",
      "outputs": [
        {
          "internalType": "address",
          "name": "walletAddress",
          "type": "address"
        },
        {
          "internalType": "uint256",
          "name": "cashAllowance",
          "type": "uint256"
        },
        {
          "internalType": "uint256",
          "name": "cashBalance",
          "type": "uint256"
        },
        {
          "internalType": "uint256",
          "name": "tokenBalance",
          "type": "uint256"
        }
      ],
      "stateMutability": "view",
      "type": "function"
    },
    {
      "inputs": [
        {
          "internalType": "uint256",
          "name": "_phone",
          "type": "uint256"
        }
      ],
      "name": "beneficiaryBalance",
      "outputs": [
        {
          "internalType": "address",
          "name": "walletAddress",
          "type": "address"
        },
        {
          "internalType": "uint256",
          "name": "cashBalance",
          "type": "uint256"
        },
        {
          "internalType": "uint256",
          "name": "tokenBalance",
          "type": "uint256"
        }
      ],
      "stateMutability": "view",
      "type": "function"
    },
    {
      "inputs": [
        {
          "internalType": "uint256",
          "name": "_data",
          "type": "uint256"
        }
      ],
      "name": "findHash",
      "outputs": [
        {
          "internalType": "bytes32",
          "name": "",
          "type": "bytes32"
        }
      ],
      "stateMutability": "pure",
      "type": "function"
    },
    {
      "inputs": [
        {
          "internalType": "string",
          "name": "_data",
          "type": "string"
        }
      ],
      "name": "findHash",
      "outputs": [
        {
          "internalType": "bytes32",
          "name": "",
          "type": "bytes32"
        }
      ],
      "stateMutability": "pure",
      "type": "function"
    },
    {
      "inputs": [
        {
          "internalType": "address",
          "name": "_data",
          "type": "address"
        }
      ],
      "name": "findHash",
      "outputs": [
        {
          "internalType": "bytes32",
          "name": "",
          "type": "bytes32"
        }
      ],
      "stateMutability": "pure",
      "type": "function"
    },
    {
      "inputs": [
        {
          "internalType": "uint256[]",
          "name": "_array",
          "type": "uint256[]"
        }
      ],
      "name": "getArraySum",
      "outputs": [
        {
          "internalType": "uint256",
          "name": "sum",
          "type": "uint256"
        }
      ],
      "stateMutability": "pure",
      "type": "function"
    },
    {
      "inputs": [
        {
          "internalType": "address payable",
          "name": "_to",
          "type": "address"
        }
      ],
      "name": "withdraw",
      "outputs": [],
      "stateMutability": "payable",
      "type": "function"
    }
  ],
  "bytecode": "0x60806040523480156200001157600080fd5b50604051620052dc380380620052dc833981016040819052620000349162000270565b620000416000826200015c565b6001600160a01b0381166000908152600360205260408120805460ff1916600117905562000091907fcaa7f6290f33308266ee2988386694ac9bc3612b5df272e3502129925a64f997906200016c565b620000be7f0aaf57387812c7f832412470a57567b5648a930069be49aa9c98d04f88520d3460006200016c565b620000eb7faf290d8680820aad922855f39b306097b20e28774d6c1ad35a20325630c3a02c60006200016c565b620001187fbe9e90431f28bd12a87a51b26b014cab620a8a4819bf73d87369ccbe6800a76c60006200016c565b50600580546001600160a01b039485166001600160a01b031991821617909155600780549385169382169390931790925560088054919093169116179055620002d8565b620001688282620001b7565b5050565b600082815260208190526040808220600101805490849055905190918391839186917fbd79b86ffe0ab8e8776151514217cd7cacd52c909f66475c3af44e129f0b00ff9190a4505050565b6000828152602081815260408083206001600160a01b038516845290915290205460ff1662000168576000828152602081815260408083206001600160a01b03851684529091529020805460ff19166001179055620002133390565b6001600160a01b0316816001600160a01b0316837f2f8788117e7eff1d82e926ec794901d17c78024a50270940304540a733656f0d60405160405180910390a45050565b6001600160a01b03811681146200026d57600080fd5b50565b600080600080608085870312156200028757600080fd5b8451620002948162000257565b6020860151909450620002a78162000257565b6040860151909350620002ba8162000257565b6060860151909250620002cd8162000257565b939692955090935050565b614ff480620002e86000396000f3fe608060405260043610620003555760003560e01c80636e90549611620001ba578063a217fddf1162000101578063d547741f116200009c578063d547741f1462000cfc578063da3e33971462000d21578063e18007621462000d46578063eaad46f51462000d91578063ec87621c1462000db6578063ee54d54f1462000dec578063f5537ede1462000e11578063fb3c0d701462000e3657600080fd5b8063a217fddf1462000b7e578063a591afbe1462000b95578063a6d63e591462000bad578063a72246871462000bd2578063ac9650d81462000bf4578063c0d955d61462000c28578063cf784eda1462000c4d578063d1e671671462000c7e57600080fd5b80636e90549614620009135780637048027514620009445780637065cb48146200096957806370c75107146200098e578063785e9e8614620009b35780637b10399914620009d55780637ecebe0014620009f7578063882575671462000a285780638bbab5c71462000a4d5780638d846f2c1462000a8357806391d148541462000ab4578063920fd1781462000ad9578063926a694d1462000afe57806394343cd21462000b235780639ea693501462000b5957600080fd5b806330772c10116200029c578063494101ff1162000237578063494101ff14620007c85780634c91b44e14620007ed57806351cff8d91462000823578063546fcaa4146200083a5780635cbd99d4146200085f5780635d755542146200088457806364a2f7d914620008ab578063666e1b3914620008df57600080fd5b806330772c1014620006475780633098b74b1462000697578063351c3d0b14620006bc57806336568abe14620006ed57806337d027b814620007125780633fc16810146200074357806345e0f75314620007685780634937b174146200078d57600080fd5b806301ffc9a7146200039d578063055ee07014620003d7578063101b84801462000417578063125bfb66146200045d578063173825d9146200048457806318cf283414620004a9578063237c9db314620004ce5780632384e10514620004ff578063248a9ca3146200053557806324d7806c146200056957806327fa7a20146200058e57806329312a9c14620005b35780632aef0c3014620005d85780632d41d55914620005fd5780632f2ff15d146200062257600080fd5b3662000398577f88a5966d370b9919b20f3e2c13ff65706f196a4e32cc2c12bf57088f8852587433346040516200038e92919062003a95565b60405180910390a1005b600080fd5b348015620003aa57600080fd5b50620003c2620003bc36600462003aae565b62000e5b565b60405190151581526020015b60405180910390f35b348015620003e457600080fd5b5062000408620003f636600462003ada565b60096020526000908152604090205481565b604051908152602001620003ce565b3480156200042457600080fd5b506200043c6200043636600462003b0a565b62000e6e565b604080519485526020850193909352918301526060820152608001620003ce565b3480156200046a57600080fd5b50620004826200047c36600462003b3d565b62000f8d565b005b3480156200049157600080fd5b50620003c2620004a336600462003b83565b62001046565b348015620004b657600080fd5b506200040860008051602062004f7883398151915281565b348015620004db57600080fd5b5062000408620004ed36600462003b83565b60136020526000908152604090205481565b3480156200050c57600080fd5b50620004087fcfa8166f1bb1b8818c3767a9ffd776afbbe3409a468070bb860831e01b56549981565b3480156200054257600080fd5b50620004086200055436600462003ada565b60009081526020819052604090206001015490565b3480156200057657600080fd5b50620003c26200058836600462003b83565b620010ae565b3480156200059b57600080fd5b5062000482620005ad36600462003c62565b620010bc565b348015620005c057600080fd5b5062000482620005d236600462003cac565b6200138f565b348015620005e557600080fd5b5062000482620005f736600462003cdb565b6200157f565b3480156200060a57600080fd5b50620004826200061c36600462003cfe565b62001661565b3480156200062f57600080fd5b50620004826200064136600462003b0a565b62001961565b3480156200065457600080fd5b506200066c6200066636600462003b83565b6200198b565b604080516001600160a01b0390951685526020850193909352918301526060820152608001620003ce565b348015620006a457600080fd5b5062000408620006b636600462003d3c565b62001b83565b348015620006c957600080fd5b5062000408620006db36600462003ada565b600a6020526000908152604090205481565b348015620006fa57600080fd5b50620004826200070c36600462003b0a565b62001bd8565b3480156200071f57600080fd5b5060085462000734906001600160a01b031681565b604051620003ce919062003dec565b3480156200075057600080fd5b50620004826200076236600462003e0f565b62001c5a565b3480156200077557600080fd5b50620007346200078736600462003b83565b62001ca6565b3480156200079a57600080fd5b50620007b2620007ac36600462003e37565b62001fad565b60408051928352602083019190915201620003ce565b348015620007d557600080fd5b5062000408620007e736600462003ada565b620020a2565b348015620007fa57600080fd5b50620004087fbe9e90431f28bd12a87a51b26b014cab620a8a4819bf73d87369ccbe6800a76c81565b620004826200083436600462003b83565b620020de565b3480156200084757600080fd5b50620004826200085936600462003e6a565b620021a8565b3480156200086c57600080fd5b50620004826200087e36600462003b83565b62002358565b3480156200089157600080fd5b506200089c620023a2565b604051620003ce919062003e94565b348015620008b857600080fd5b50620003c2620008ca36600462003ada565b600b6020526000908152604090205460ff1681565b348015620008ec57600080fd5b50620003c2620008fe36600462003b83565b60036020526000908152604090205460ff1681565b3480156200092057600080fd5b50620004086200093236600462003ada565b600e6020526000908152604090205481565b3480156200095157600080fd5b50620004826200096336600462003b83565b620023b5565b3480156200097657600080fd5b50620003c26200098836600462003b83565b62002412565b3480156200099b57600080fd5b5062000408620009ad36600462003ee3565b62002476565b348015620009c057600080fd5b5060055462000734906001600160a01b031681565b348015620009e257600080fd5b5060075462000734906001600160a01b031681565b34801562000a0457600080fd5b506200040862000a1636600462003b83565b60046020526000908152604090205481565b34801562000a3557600080fd5b506200048262000a4736600462003cdb565b6200248b565b34801562000a5a57600080fd5b50620004087f043620c1e1c33ecf60d9dadc62571b96554338b68ef3636e715e52a286bea92e81565b34801562000a9057600080fd5b506200040862000aa236600462003ada565b600f6020526000908152604090205481565b34801562000ac157600080fd5b50620003c262000ad336600462003b0a565b620024d9565b34801562000ae657600080fd5b506200040862000af836600462003b83565b62002502565b34801562000b0b57600080fd5b506200040860008051602062004f5883398151915281565b34801562000b3057600080fd5b50620004087f8ff5d84bbad5f252f2ee1916646e221e55645205d2f803ebe6a7d6ba8fa4185d81565b34801562000b6657600080fd5b506200048262000b7836600462003cdb565b62002525565b34801562000b8b57600080fd5b5062000408600081565b34801562000ba257600080fd5b506200089c62002808565b34801562000bba57600080fd5b506200048262000bcc36600462003f1b565b62002816565b34801562000bdf57600080fd5b5060065462000734906001600160a01b031681565b34801562000c0157600080fd5b5062000c1962000c1336600462003f66565b620028d2565b604051620003ce919062004033565b34801562000c3557600080fd5b506200048262000c4736600462004099565b620029d9565b34801562000c5a57600080fd5b506200040862000c6c36600462003ada565b6000908152600f602052604090205490565b34801562000c8b57600080fd5b5062000cd562000c9d36600462003cac565b601460209081526000928352604080842090915290825290208054600182015460028301546003909301549192909160ff9091169084565b604080519485526020850193909352901515918301919091526060820152608001620003ce565b34801562000d0957600080fd5b506200048262000d1b36600462003b0a565b62002bf9565b34801562000d2e57600080fd5b506200048262000d4036600462003b3d565b62002c23565b34801562000d5357600080fd5b5062000d6b62000d6536600462003ada565b62002c85565b604080516001600160a01b039094168452602084019290925290820152606001620003ce565b34801562000d9e57600080fd5b506200048262000db0366004620040ea565b62002d99565b34801562000dc357600080fd5b50620004087faf290d8680820aad922855f39b306097b20e28774d6c1ad35a20325630c3a02c81565b34801562000df957600080fd5b50620003c262000e0b36600462003b83565b62002e1a565b34801562000e1e57600080fd5b506200048262000e3036600462003b3d565b62002e37565b34801562000e4357600080fd5b506200048262000e5536600462004127565b62002e99565b600062000e688262002f4a565b92915050565b600654604051636eb1769f60e11b81526000918291829182916001600160a01b039091169063dd62ed3e9062000eab90889030906004016200417f565b602060405180830381865afa15801562000ec9573d6000803e3d6000fd5b505050506040513d601f19601f8201168201806040525081019062000eef919062004199565b6006546040516370a0823160e01b81529194506001600160a01b0316906370a082319062000f2290309060040162003dec565b602060405180830381865afa15801562000f40573d6000803e3d6000fd5b505050506040513d601f19601f8201168201806040525081019062000f66919062004199565b6000968752600f6020908152604080892054600e9092529097205497939690955093505050565b3360009081526003602052604090205460ff1662000fc85760405162461bcd60e51b815260040162000fbf90620041b3565b60405180910390fd5b6040516323b872dd60e01b81526001600160a01b038416906323b872dd9062000ffa90859030908690600401620041fa565b6020604051808303816000875af11580156200101a573d6000803e3d6000fd5b505050506040513d601f19601f820116820180604052508101906200104091906200421e565b50505050565b3360009081526003602052604081205460ff16620010785760405162461bcd60e51b815260040162000fbf90620041b3565b6001600160a01b0382166000908152600360205260409020805460ff19169055620010a560018362002f81565b50600192915050565b600062000e688183620024d9565b816000620010ca82620020a2565b6000838152600a602052604081205491925003620010fc5760405162461bcd60e51b815260040162000fbf906200423e565b6200111760008051602062004f5883398151915233620024d9565b620011365760405162461bcd60e51b815260040162000fbf906200428b565b60006200114385620020a2565b336000908152601460209081526040808320848452909152902060028101549192509060ff16620011c35760405162461bcd60e51b815260206004820152602360248201527f52414841543a20436c61696d20686173206e6f74206265656e2072656c65617360448201526232b21760e91b606482015260840162000fbf565b4281600301541015620012235760405162461bcd60e51b815260206004820152602160248201527f52414841543a20436c61696d2068617320616c726561647920657870697265646044820152601760f91b606482015260840162000fbf565b6000620012308662002476565b33600090815260146020908152604080832087845290915290206001015490915081146200129d5760405162461bcd60e51b81526020600482015260196024820152782920a420aa1d1027aa28103234b2103737ba1036b0ba31b41760391b604482015260640162000fbf565b620012ad87836000015462002f9f565b815460028301805460ff191690556000808455600384015560055460405163a9059cbb60e01b81526001600160a01b039091169063a9059cbb90620012f9903390859060040162003a95565b6020604051808303816000875af115801562001319573d6000803e3d6000fd5b505050506040513d601f19601f820116820180604052508101906200133f91906200421e565b506200134d33898362003013565b604051818152889033907fe4de809bf00bba73c562150b76ba81e5af05183458342bfdb09a7c9e303813e5906020015b60405180910390a35050505050505050565b6200139c600033620024d9565b620013bb5760405162461bcd60e51b815260040162000fbf90620042d5565b6007546001600160a01b03166338a699a4620013d78462002502565b6040518263ffffffff1660e01b8152600401620013f691815260200190565b602060405180830381865afa15801562001414573d6000803e3d6000fd5b505050506040513d601f19601f820116820180604052508101906200143a91906200421e565b620014885760405162461bcd60e51b815260206004820152601d60248201527f76656e646f722077616c6c6574206e6f7420726567697374657265642e000000604482015260640162000fbf565b6006546007546001600160a01b039182169163095ea7b3911663bde87f2e620014b18662002502565b6040518263ffffffff1660e01b8152600401620014d091815260200190565b602060405180830381865afa158015620014ee573d6000803e3d6000fd5b505050506040513d601f19601f820116820180604052508101906200151491906200430c565b836040518363ffffffff1660e01b81526004016200153492919062003a95565b6020604051808303816000875af115801562001554573d6000803e3d6000fd5b505050506040513d601f19601f820116820180604052508101906200157a91906200421e565b505050565b6200158c600033620024d9565b620015ab5760405162461bcd60e51b815260040162000fbf90620042d5565b816000620015b982620020a2565b6000838152600a602052604081205491925003620015eb5760405162461bcd60e51b815260040162000fbf906200423e565b6000848152600a6020908152604080832054868452600f90925282208054919283926200161a90849062004342565b90915550506000858152600a6020908152604080832083905560099091529020546200164890829062004358565b6000958652600960205260409095209490945550505050565b8260006200166f82620020a2565b6000838152600a602052604081205491925003620016a15760405162461bcd60e51b815260040162000fbf906200423e565b620016bc60008051602062004f7883398151915233620024d9565b6200171d5760405162461bcd60e51b815260206004820152602a60248201527f52414841543a2053656e646572206d75737420626520616e20617574686f72696044820152693d32b21039b2b93b32b960b11b606482015260840162000fbf565b60006200172a86620020a2565b6001600160a01b038816600090815260146020908152604080832084845290915281206003810154929350919003620017b45760405162461bcd60e51b815260206004820152602560248201527f52414841543a20436c61696d20686173206e6f74206265656e2063726561746560448201526419081e595d60da1b606482015260840162000fbf565b62015180851115620018215760405162461bcd60e51b815260206004820152602f60248201527f52414841543a54696d6520546f204c6976652073686f756c64206265206c657360448201526e73207468616e20323420686f75727360881b606482015260840162000fbf565b600381015462001835906201518062004342565b421115620018925760405162461bcd60e51b815260206004820152602360248201527f52414841543a20436c61696d206973206f6c646572207468616e20323420686f60448201526275727360e81b606482015260840162000fbf565b600281015460ff1615620018f95760405162461bcd60e51b815260206004820152602760248201527f52414841543a20436c61696d2068617320616c7265616479206265656e2072656044820152663632b0b9b2b21760c91b606482015260840162000fbf565b600180820187905560028201805460ff191690911790556200191c854262004342565b6003820155805460405190815287906001600160a01b038a16907f05ca75b0d90f1dd046ad3b8c1ec4a461042c3d33518b9b67d9feafc7d8d3c6cf906020016200137d565b6000828152602081905260409020600101546200197f813362003182565b6200157a8383620031f1565b6007546000908190819081906001600160a01b031663bde87f2e620019b08762002502565b6040518263ffffffff1660e01b8152600401620019cf91815260200190565b602060405180830381865afa158015620019ed573d6000803e3d6000fd5b505050506040513d601f19601f8201168201806040525081019062001a1391906200430c565b600654604051636eb1769f60e11b81529195506001600160a01b03169063dd62ed3e9062001a4890309088906004016200417f565b602060405180830381865afa15801562001a66573d6000803e3d6000fd5b505050506040513d601f19601f8201168201806040525081019062001a8c919062004199565b6006546040516370a0823160e01b81529194506001600160a01b0316906370a082319062001abf90879060040162003dec565b602060405180830381865afa15801562001add573d6000803e3d6000fd5b505050506040513d601f19601f8201168201806040525081019062001b03919062004199565b6005546040516370a0823160e01b81529193506001600160a01b0316906370a082319062001b3690889060040162003dec565b602060405180830381865afa15801562001b54573d6000803e3d6000fd5b505050506040513d601f19601f8201168201806040525081019062001b7a919062004199565b90509193509193565b6000805b825181101562001bd25782818151811062001ba65762001ba66200436e565b60200260200101518262001bbb919062004342565b91508062001bc98162004384565b91505062001b87565b50919050565b6001600160a01b038116331462001c4a5760405162461bcd60e51b815260206004820152602f60248201527f416363657373436f6e74726f6c3a2063616e206f6e6c792072656e6f756e636560448201526e103937b632b9903337b91039b2b63360891b606482015260840162000fbf565b62001c56828262003279565b5050565b62001c67600033620024d9565b62001c865760405162461bcd60e51b815260040162000fbf90620042d5565b6000918252600b6020526040909120805460ff1916911515919091179055565b600062001cb48133620024d9565b62001cd35760405162461bcd60e51b815260040162000fbf90620042d5565b60008062001ce18462002502565b600754604051635ef43f9760e11b8152600481018390529192506000916001600160a01b039091169063bde87f2e90602401602060405180830381865afa15801562001d31573d6000803e3d6000fd5b505050506040513d601f19601f8201168201806040525081019062001d5791906200430c565b90506001600160a01b0381161562001d725780925062001e40565b3060405162001d819062003a87565b62001d8d919062003dec565b604051809103906000f08015801562001daa573d6000803e3d6000fd5b506007549093506001600160a01b031663b3fd13a962001dca8762002502565b6040516001600160e01b031960e084901b16815260048101919091526001600160a01b03861660248201526044016020604051808303816000875af115801562001e18573d6000803e3d6000fd5b505050506040513d601f19601f8201168201806040525081019062001e3e91906200421e565b505b604051630e0cb96960e31b81526001600160a01b03841690637065cb489062001e6e90889060040162003dec565b6020604051808303816000875af115801562001e8e573d6000803e3d6000fd5b505050506040513d601f19601f8201168201806040525081019062001eb491906200421e565b5062001ed060008051602062004f588339815191528662001961565b62001edd601186620032e1565b5067016345785d8a0000856001600160a01b031631101562001fa4576000856001600160a01b03166702c68af0bb14000060405160006040518083038185875af1925050503d806000811462001f50576040519150601f19603f3d011682016040523d82523d6000602084013e62001f55565b606091505b505090508062001fa25760405162461bcd60e51b81526020600482015260176024820152762930b430ba103732b2b2399036b7b9329032ba3432b91760491b604482015260640162000fbf565b505b50909392505050565b600080836001600160a01b031663dd62ed3e84306040518363ffffffff1660e01b815260040162001fe09291906200417f565b602060405180830381865afa15801562001ffe573d6000803e3d6000fd5b505050506040513d601f19601f8201168201806040525081019062002024919062004199565b6040516370a0823160e01b81529092506001600160a01b038516906370a08231906200205590309060040162003dec565b602060405180830381865afa15801562002073573d6000803e3d6000fd5b505050506040513d601f19601f8201168201806040525081019062002099919062004199565b90509250929050565b6000620020af82620032f8565b604051602001620020c19190620043a0565b604051602081830303815290604052805190602001209050919050565b620020eb600033620024d9565b6200210a5760405162461bcd60e51b815260040162000fbf90620042d5565b6000816001600160a01b03164760405160006040518083038185875af1925050503d806000811462002159576040519150601f19603f3d011682016040523d82523d6000602084013e6200215e565b606091505b505090508062001c565760405162461bcd60e51b81526020600482015260146024820152732330b4b632b2103a379039b2b7321022ba3432b960611b604482015260640162000fbf565b826000620021b682620020a2565b6000838152600a602052604081205491925003620021e85760405162461bcd60e51b815260040162000fbf906200423e565b620021f5600033620024d9565b620022145760405162461bcd60e51b815260040162000fbf90620042d5565b6200221f8462002e1a565b620022785760405162461bcd60e51b815260206004820152602260248201527f5472616e7366657220746f206d7573742062652076656e646f72206164647265604482015261737360f01b606482015260840162000fbf565b62002284858462002f9f565b6200229184868562003013565b60055460405163a9059cbb60e01b81526001600160a01b039091169063a9059cbb90620022c5908790879060040162003a95565b6020604051808303816000875af1158015620022e5573d6000803e3d6000fd5b505050506040513d601f19601f820116820180604052508101906200230b91906200421e565b5084846001600160a01b03167fe4de809bf00bba73c562150b76ba81e5af05183458342bfdb09a7c9e303813e5856040516200234991815260200190565b60405180910390a35050505050565b62002365600033620024d9565b620023845760405162461bcd60e51b815260040162000fbf90620042d5565b6200239f60008051602062004f788339815191528262001961565b50565b6060620023b0601162003418565b905090565b620023c2600033620024d9565b620023e15760405162461bcd60e51b815260040162000fbf90620042d5565b620023ee60008262001961565b6001600160a01b03166000908152600360205260409020805460ff19166001179055565b3360009081526003602052604081205460ff16620024445760405162461bcd60e51b815260040162000fbf90620041b3565b6001600160a01b0382166000908152600360205260409020805460ff19166001908117909155620010a59083620032e1565b600081604051602001620020c19190620043a0565b6000828152600f602052604081208054839290620024ab90849062004342565b90915550506000828152600e602052604081208054839290620024d090849062004342565b90915550505050565b6000918252602082815260408084206001600160a01b0393909316845291905290205460ff1690565b6040516001600160601b0319606083901b166020820152600090603401620020c1565b8160006200253382620020a2565b6000838152600a602052604081205491925003620025655760405162461bcd60e51b815260040162000fbf906200423e565b6200258060008051602062004f5883398151915233620024d9565b6200259f5760405162461bcd60e51b815260040162000fbf906200428b565b600860009054906101000a90046001600160a01b03166001600160a01b031663b8f7a6656040518163ffffffff1660e01b8152600401602060405180830381865afa158015620025f3573d6000803e3d6000fd5b505050506040513d601f19601f820116820180604052508101906200261991906200421e565b6200268d5760405162461bcd60e51b815260206004820152603f60248201527f5468697320726573706f6e736520686173206e6f74206265656e20616374697660448201527f61746564207965742c20706c6561736520636f6e746163742061646d696e2e00606482015260840162000fbf565b6000848152600b602052604090205460ff1615620026fa5760405162461bcd60e51b8152602060048201526024808201527f43616e6e6f7420636c61696d2066726f6d2062616e6b65642062656e656669636044820152636961727960e01b606482015260840162000fbf565b62002706338462003427565b60006200271385620020a2565b6000868152600a60205260409020549091508411156200279c5760405162461bcd60e51b815260206004820152603c60248201527f52414841543a20416d6f756e742072657175657374656420697320677265617460448201527f6572207468616e2062656e65666963696172792062616c616e63652e00000000606482015260840162000fbf565b33600090815260146020908152604080832084845282529182902060028101805460ff191690558681554260038201559151868152879132917f79ef0b2282f5e45718748b37d5a89727c1544ad2f78b126efa97c32ac1f1d232910160405180910390a3505050505050565b6060620023b0600162003418565b3360009081526003602052604090205460ff16620028485760405162461bcd60e51b815260040162000fbf90620041b3565b6006546001600160a01b03166200287557600680546001600160a01b0319166001600160a01b0386161790555b6200288284848362000f8d565b6000828152600f602052604081208054839290620028a290849062004342565b90915550506000828152600e602052604081208054839290620028c790849062004342565b909155505050505050565b6060816001600160401b03811115620028ef57620028ef62003ba3565b6040519080825280602002602001820160405280156200292457816020015b60608152602001906001900390816200290e5790505b50905060005b82811015620029d2576200299c308585848181106200294d576200294d6200436e565b9050602002810190620029619190620043be565b8080601f0160208091040260200160405190810160405280939291908181526020018383808284376000920191909152506200357e92505050565b828281518110620029b157620029b16200436e565b60200260200101819052508080620029c99062004384565b9150506200292a565b5092915050565b620029e6600033620024d9565b62002a055760405162461bcd60e51b815260040162000fbf90620042d5565b600062002a128462002476565b6007549091506001600160a01b03166338a699a462002a3185620020a2565b6040518263ffffffff1660e01b815260040162002a5091815260200190565b602060405180830381865afa15801562002a6e573d6000803e3d6000fd5b505050506040513d601f19601f8201168201806040525081019062002a9491906200421e565b62002ae05760405162461bcd60e51b815260206004820152601b60248201527a2132b732b334b1b4b0b93c903737ba103932b3b4b9ba32b932b21760291b604482015260640162000fbf565b336000908152601360205260408120805484929062002b0190849062004342565b90915550506000818152600f602052604090205482111562002b855760405162461bcd60e51b815260206004820152603660248201527f52414841543a20416d6f756e742069732067726561746572207468616e2072656044820152751b585a5b9a5b99c8141c9bda9958dd08109d5919d95d60521b606482015260840162000fbf565b6000818152600f60205260408120805484929062002ba590849062004358565b9091555062002bb790508383620035a6565b82817f707197b34e0edb88707154f8a8ea9f3c8d891eb60a28dac25cc79bf23c3aa5c18460405162002beb91815260200190565b60405180910390a350505050565b60008281526020819052604090206001015462002c17813362003182565b6200157a838362003279565b3360009081526003602052604090205460ff1662002c555760405162461bcd60e51b815260040162000fbf90620041b3565b60405163095ea7b360e01b81526001600160a01b0384169063095ea7b39062000ffa908590859060040162003a95565b600754600090819081906001600160a01b031663bde87f2e62002ca886620020a2565b6040518263ffffffff1660e01b815260040162002cc791815260200190565b602060405180830381865afa15801562002ce5573d6000803e3d6000fd5b505050506040513d601f19601f8201168201806040525081019062002d0b91906200430c565b6006546040516370a0823160e01b81529194506001600160a01b0316906370a082319062002d3e90869060040162003dec565b602060405180830381865afa15801562002d5c573d6000803e3d6000fd5b505050506040513d601f19601f8201168201806040525081019062002d82919062004199565b6000948552600a6020526040909420549294915050565b62002da6600033620024d9565b62002dc55760405162461bcd60e51b815260040162000fbf90620042d5565b600062002dd28262002476565b905062002e007fbe9e90431f28bd12a87a51b26b014cab620a8a4819bf73d87369ccbe6800a76c8462001961565b6000818152601060205260409020620010409084620032e1565b600062000e6860008051602062004f5883398151915283620024d9565b3360009081526003602052604090205460ff1662002e695760405162461bcd60e51b815260040162000fbf90620041b3565b60405163a9059cbb60e01b81526001600160a01b0384169063a9059cbb9062000ffa908590859060040162003a95565b3360009081526003602052604090205460ff1662002ecb5760405162461bcd60e51b815260040162000fbf90620041b3565b6040516323b872dd60e01b81526001600160a01b038516906323b872dd9062002efd90869086908690600401620041fa565b6020604051808303816000875af115801562002f1d573d6000803e3d6000fd5b505050506040513d601f19601f8201168201806040525081019062002f4391906200421e565b5050505050565b60006001600160e01b03198216637965db0b60e01b148062000e6857506301ffc9a760e01b6001600160e01b031983161462000e68565b600062002f98836001600160a01b03841662003600565b9392505050565b81600062002fad82620020a2565b6000838152600a60205260408120549192500362002fdf5760405162461bcd60e51b815260040162000fbf906200423e565b6000848152600a602052604090205462002ffb90849062004358565b6000948552600a602052604090942093909355505050565b6007546000906001600160a01b031663bde87f2e620030328662002502565b6040518263ffffffff1660e01b81526004016200305191815260200190565b602060405180830381865afa1580156200306f573d6000803e3d6000fd5b505050506040513d601f19601f820116820180604052508101906200309591906200430c565b6006546007549192506001600160a01b038084169263f5537ede928216911663bde87f2e620030c488620020a2565b6040518263ffffffff1660e01b8152600401620030e391815260200190565b602060405180830381865afa15801562003101573d6000803e3d6000fd5b505050506040513d601f19601f820116820180604052508101906200312791906200430c565b856040518463ffffffff1660e01b81526004016200314893929190620041fa565b600060405180830381600087803b1580156200316357600080fd5b505af115801562003178573d6000803e3d6000fd5b5050505050505050565b6200318e8282620024d9565b62001c5657620031a9816001600160a01b0316601462003704565b620031b683602062003704565b604051602001620031c99291906200440e565b60408051601f198184030181529082905262461bcd60e51b825262000fbf9160040162004481565b620031fd8282620024d9565b62001c56576000828152602081815260408083206001600160a01b03851684529091529020805460ff19166001179055620032353390565b6001600160a01b0316816001600160a01b0316837f2f8788117e7eff1d82e926ec794901d17c78024a50270940304540a733656f0d60405160405180910390a45050565b620032858282620024d9565b1562001c56576000828152602081815260408083206001600160a01b0385168085529252808320805460ff1916905551339285917ff6391f5c32d9c69d2a47ea670b442974b53935d1edc7fd64eb21e047a839171b9190a45050565b600062002f98836001600160a01b038416620038bd565b606081600003620033205750506040805180820190915260018152600360fc1b602082015290565b8160005b8115620033505780620033378162004384565b9150620033489050600a83620044ac565b915062003324565b6000816001600160401b038111156200336d576200336d62003ba3565b6040519080825280601f01601f19166020018201604052801562003398576020820181803683370190505b5090505b84156200341057620033b060018362004358565b9150620033bf600a86620044c3565b620033cc90603062004342565b60f81b818381518110620033e457620033e46200436e565b60200101906001600160f81b031916908160001a90535062003408600a86620044ac565b94506200339c565b949350505050565b6060600062002f98836200390f565b6006546007546000916001600160a01b03908116916370a08231911663bde87f2e620034538762002502565b6040518263ffffffff1660e01b81526004016200347291815260200190565b602060405180830381865afa15801562003490573d6000803e3d6000fd5b505050506040513d601f19601f82011682018060405250810190620034b691906200430c565b6040518263ffffffff1660e01b8152600401620034d4919062003dec565b602060405180830381865afa158015620034f2573d6000803e3d6000fd5b505050506040513d601f19601f8201168201806040525081019062003518919062004199565b9050818110156200157a5760405162461bcd60e51b815260206004820152602960248201527f56656e646f7220646f6573206e6f74206861766520656e6f7567682063617368604482015268103130b630b731b29760b91b606482015260840162000fbf565b606062002f98838360405180606001604052806027815260200162004f98602791396200396d565b6000828152600a6020526040902054620035c290829062004342565b6000838152600a6020908152604080832093909355600990522054620035ea90829062004342565b6000928352600960205260409092209190915550565b60008181526001830160205260408120548015620036f95760006200362760018362004358565b85549091506000906200363d9060019062004358565b9050818114620036a95760008660000182815481106200366157620036616200436e565b90600052602060002001549050808760000184815481106200368757620036876200436e565b6000918252602080832090910192909255918252600188019052604090208390555b8554869080620036bd57620036bd620044da565b60019003818190600052602060002001600090559055856001016000868152602001908152602001600020600090556001935050505062000e68565b600091505062000e68565b6060600062003715836002620044f0565b6200372290600262004342565b6001600160401b038111156200373c576200373c62003ba3565b6040519080825280601f01601f19166020018201604052801562003767576020820181803683370190505b509050600360fc1b816000815181106200378557620037856200436e565b60200101906001600160f81b031916908160001a905350600f60fb1b81600181518110620037b757620037b76200436e565b60200101906001600160f81b031916908160001a9053506000620037dd846002620044f0565b620037ea90600162004342565b90505b60018111156200386c576f181899199a1a9b1b9c1cb0b131b232b360811b85600f16601081106200382257620038226200436e565b1a60f81b8282815181106200383b576200383b6200436e565b60200101906001600160f81b031916908160001a90535060049490941c93620038648162004512565b9050620037ed565b50831562002f985760405162461bcd60e51b815260206004820181905260248201527f537472696e67733a20686578206c656e67746820696e73756666696369656e74604482015260640162000fbf565b6000818152600183016020526040812054620039065750815460018181018455600084815260208082209093018490558454848252828601909352604090209190915562000e68565b50600062000e68565b6060816000018054806020026020016040519081016040528092919081815260200182805480156200396157602002820191906000526020600020905b8154815260200190600101908083116200394c575b50505050509050919050565b6060833b620039ce5760405162461bcd60e51b815260206004820152602660248201527f416464726573733a2064656c65676174652063616c6c20746f206e6f6e2d636f6044820152651b9d1c9858dd60d21b606482015260840162000fbf565b600080856001600160a01b031685604051620039eb9190620043a0565b600060405180830381855af49150503d806000811462003a28576040519150601f19603f3d011682016040523d82523d6000602084013e62003a2d565b606091505b509150915062003a3f82828662003a49565b9695505050505050565b6060831562003a5a57508162002f98565b82511562003a6b5782518084602001fd5b8160405162461bcd60e51b815260040162000fbf919062004481565b610a2b806200452d83390190565b6001600160a01b03929092168252602082015260400190565b60006020828403121562003ac157600080fd5b81356001600160e01b03198116811462002f9857600080fd5b60006020828403121562003aed57600080fd5b5035919050565b6001600160a01b03811681146200239f57600080fd5b6000806040838503121562003b1e57600080fd5b82359150602083013562003b328162003af4565b809150509250929050565b60008060006060848603121562003b5357600080fd5b833562003b608162003af4565b9250602084013562003b728162003af4565b929592945050506040919091013590565b60006020828403121562003b9657600080fd5b813562002f988162003af4565b634e487b7160e01b600052604160045260246000fd5b604051601f8201601f191681016001600160401b038111828210171562003be45762003be462003ba3565b604052919050565b600082601f83011262003bfe57600080fd5b81356001600160401b0381111562003c1a5762003c1a62003ba3565b62003c2f601f8201601f191660200162003bb9565b81815284602083860101111562003c4557600080fd5b816020850160208301376000918101602001919091529392505050565b6000806040838503121562003c7657600080fd5b8235915060208301356001600160401b0381111562003c9457600080fd5b62003ca28582860162003bec565b9150509250929050565b6000806040838503121562003cc057600080fd5b823562003ccd8162003af4565b946020939093013593505050565b6000806040838503121562003cef57600080fd5b50508035926020909101359150565b6000806000806080858703121562003d1557600080fd5b843562003d228162003af4565b966020860135965060408601359560600135945092505050565b6000602080838503121562003d5057600080fd5b82356001600160401b038082111562003d6857600080fd5b818501915085601f83011262003d7d57600080fd5b81358181111562003d925762003d9262003ba3565b8060051b915062003da584830162003bb9565b818152918301840191848101908884111562003dc057600080fd5b938501935b8385101562003de05784358252938501939085019062003dc5565b98975050505050505050565b6001600160a01b0391909116815260200190565b80151581146200239f57600080fd5b6000806040838503121562003e2357600080fd5b82359150602083013562003b328162003e00565b6000806040838503121562003e4b57600080fd5b823562003e588162003af4565b9150602083013562003b328162003af4565b60008060006060848603121562003e8057600080fd5b83359250602084013562003b728162003af4565b6020808252825182820181905260009190848201906040850190845b8181101562003ed75783516001600160a01b03168352928401929184019160010162003eb0565b50909695505050505050565b60006020828403121562003ef657600080fd5b81356001600160401b0381111562003f0d57600080fd5b620034108482850162003bec565b6000806000806080858703121562003f3257600080fd5b843562003f3f8162003af4565b9350602085013562003f518162003af4565b93969395505050506040820135916060013590565b6000806020838503121562003f7a57600080fd5b82356001600160401b038082111562003f9257600080fd5b818501915085601f83011262003fa757600080fd5b81358181111562003fb757600080fd5b8660208260051b850101111562003fcd57600080fd5b60209290920196919550909350505050565b60005b8381101562003ffc57818101518382015260200162003fe2565b50506000910152565b600081518084526200401f81602086016020860162003fdf565b601f01601f19169290920160200192915050565b6000602080830181845280855180835260408601915060408160051b870101925083870160005b828110156200408c57603f198886030184526200407985835162004005565b945092850192908501906001016200405a565b5092979650505050505050565b600080600060608486031215620040af57600080fd5b83356001600160401b03811115620040c657600080fd5b620040d48682870162003bec565b9660208601359650604090950135949350505050565b60008060408385031215620040fe57600080fd5b82356200410b8162003af4565b915060208301356001600160401b0381111562003c9457600080fd5b600080600080608085870312156200413e57600080fd5b84356200414b8162003af4565b935060208501356200415d8162003af4565b925060408501356200416f8162003af4565b9396929550929360600135925050565b6001600160a01b0392831681529116602082015260400190565b600060208284031215620041ac57600080fd5b5051919050565b60208082526027908201527f4f6e6c79206f776e65722063616e20657865637574652074686973207472616e60408201526639b0b1ba34b7b760c91b606082015260800190565b6001600160a01b039384168152919092166020820152604081019190915260600190565b6000602082840312156200423157600080fd5b815162002f988162003e00565b6020808252602d908201527f52414841543a204e6f20616e7920746f6b656e2077617320697373756564207460408201526c37903a3434b990373ab6b132b960991b606082015260800190565b6020808252602a908201527f52414841543a2053656e646572204d757374206265206120726567697374657260408201526932b2103b32b73237b91760b11b606082015260800190565b6020808252601f908201527f52414841543a2053656e646572206d75737420626520616e2061646d696e2e00604082015260600190565b6000602082840312156200431f57600080fd5b815162002f988162003af4565b634e487b7160e01b600052601160045260246000fd5b8082018082111562000e685762000e686200432c565b8181038181111562000e685762000e686200432c565b634e487b7160e01b600052603260045260246000fd5b6000600182016200439957620043996200432c565b5060010190565b60008251620043b481846020870162003fdf565b9190910192915050565b6000808335601e19843603018112620043d657600080fd5b8301803591506001600160401b03821115620043f157600080fd5b6020019150368190038213156200440757600080fd5b9250929050565b76020b1b1b2b9b9a1b7b73a3937b61d1030b1b1b7bab73a1604d1b8152600083516200444281601785016020880162003fdf565b7001034b99036b4b9b9b4b733903937b6329607d1b60179184019182015283516200447581602884016020880162003fdf565b01602801949350505050565b60208152600062002f98602083018462004005565b634e487b7160e01b600052601260045260246000fd5b600082620044be57620044be62004496565b500490565b600082620044d557620044d562004496565b500690565b634e487b7160e01b600052603160045260246000fd5b60008160001904831182151516156200450d576200450d6200432c565b500290565b6000816200452457620045246200432c565b50600019019056fe608060405234801561001057600080fd5b50604051610a2b380380610a2b83398101604081905261002f91610056565b6001600160a01b03166000908152600260205260409020805460ff19166001179055610086565b60006020828403121561006857600080fd5b81516001600160a01b038116811461007f57600080fd5b9392505050565b610996806100956000396000f3fe608060405234801561001057600080fd5b50600436106100835760003560e01c8063125bfb6614610088578063173825d91461009d5780634937b174146100c5578063666e1b39146100ed5780637065cb4814610110578063a591afbe14610123578063da3e339714610138578063f5537ede1461014b578063fb3c0d701461015e575b600080fd5b61009b61009636600461073b565b610171565b005b6100b06100ab366004610777565b610222565b60405190151581526020015b60405180910390f35b6100d86100d3366004610792565b610286565b604080519283526020830191909152016100bc565b6100b06100fb366004610777565b60026020526000908152604090205460ff1681565b6100b061011e366004610777565b61036f565b61012b6103cb565b6040516100bc91906107bc565b61009b61014636600461073b565b6103dc565b61009b61015936600461073b565b610439565b61009b61016c366004610809565b610496565b3360009081526002602052604090205460ff166101a95760405162461bcd60e51b81526004016101a090610854565b60405180910390fd5b6040516323b872dd60e01b81526001600160a01b038416906323b872dd906101d99085903090869060040161089b565b6020604051808303816000875af11580156101f8573d6000803e3d6000fd5b505050506040513d601f19601f8201168201806040525081019061021c91906108bf565b50505050565b3360009081526002602052604081205460ff166102515760405162461bcd60e51b81526004016101a090610854565b6001600160a01b0382166000908152600260205260408120805460ff1916905561027b908361053f565b50600190505b919050565b604051636eb1769f60e11b81526001600160a01b038281166004830152306024830152600091829185169063dd62ed3e90604401602060405180830381865afa1580156102d7573d6000803e3d6000fd5b505050506040513d601f19601f820116820180604052508101906102fb91906108e1565b6040516370a0823160e01b81523060048201529092506001600160a01b038516906370a0823190602401602060405180830381865afa158015610342573d6000803e3d6000fd5b505050506040513d601f19601f8201168201806040525081019061036691906108e1565b90509250929050565b3360009081526002602052604081205460ff1661039e5760405162461bcd60e51b81526004016101a090610854565b6001600160a01b0382166000908152600260205260408120805460ff1916600117905561027b908361055d565b60606103d76000610572565b905090565b3360009081526002602052604090205460ff1661040b5760405162461bcd60e51b81526004016101a090610854565b60405163095ea7b360e01b81526001600160a01b0384169063095ea7b3906101d990859085906004016108fa565b3360009081526002602052604090205460ff166104685760405162461bcd60e51b81526004016101a090610854565b60405163a9059cbb60e01b81526001600160a01b0384169063a9059cbb906101d990859085906004016108fa565b3360009081526002602052604090205460ff166104c55760405162461bcd60e51b81526004016101a090610854565b6040516323b872dd60e01b81526001600160a01b038516906323b872dd906104f59086908690869060040161089b565b6020604051808303816000875af1158015610514573d6000803e3d6000fd5b505050506040513d601f19601f8201168201806040525081019061053891906108bf565b5050505050565b6000610554836001600160a01b038416610586565b90505b92915050565b6000610554836001600160a01b038416610679565b6060600061057f836106c8565b9392505050565b6000818152600183016020526040812054801561066f5760006105aa600183610913565b85549091506000906105be90600190610913565b90508181146106235760008660000182815481106105de576105de610934565b906000526020600020015490508087600001848154811061060157610601610934565b6000918252602080832090910192909255918252600188019052604090208390555b85548690806106345761063461094a565b600190038181906000526020600020016000905590558560010160008681526020019081526020016000206000905560019350505050610557565b6000915050610557565b60008181526001830160205260408120546106c057508154600181810184556000848152602080822090930184905584548482528286019093526040902091909155610557565b506000610557565b60608160000180548060200260200160405190810160405280929190818152602001828054801561071857602002820191906000526020600020905b815481526020019060010190808311610704575b50505050509050919050565b80356001600160a01b038116811461028157600080fd5b60008060006060848603121561075057600080fd5b61075984610724565b925061076760208501610724565b9150604084013590509250925092565b60006020828403121561078957600080fd5b61055482610724565b600080604083850312156107a557600080fd5b6107ae83610724565b915061036660208401610724565b6020808252825182820181905260009190848201906040850190845b818110156107fd5783516001600160a01b0316835292840192918401916001016107d8565b50909695505050505050565b6000806000806080858703121561081f57600080fd5b61082885610724565b935061083660208601610724565b925061084460408601610724565b9396929550929360600135925050565b60208082526027908201527f4f6e6c79206f776e65722063616e20657865637574652074686973207472616e60408201526639b0b1ba34b7b760c91b606082015260800190565b6001600160a01b039384168152919092166020820152604081019190915260600190565b6000602082840312156108d157600080fd5b8151801515811461057f57600080fd5b6000602082840312156108f357600080fd5b5051919050565b6001600160a01b03929092168252602082015260400190565b8181038181111561055757634e487b7160e01b600052601160045260246000fd5b634e487b7160e01b600052603260045260246000fd5b634e487b7160e01b600052603160045260246000fdfea264697066735822122068171fbd245170a63f78e27bbb798034c7e46d1bf235bab6dc8f67433fda987764736f6c634300081000330aaf57387812c7f832412470a57567b5648a930069be49aa9c98d04f88520d34caa7f6290f33308266ee2988386694ac9bc3612b5df272e3502129925a64f997416464726573733a206c6f772d6c6576656c2064656c65676174652063616c6c206661696c6564a26469706673582212200d3906562a95dccd97312b14050935a58504593add4db467790a6206c6d8962264736f6c63430008100033",
  "immutableReferences": {},
  "source": "//SPDX-License-Identifier: LGPL-3.0\r\n//TODO add balance of beneficiary per project\r\n//TODO suspend mobilizer and vendor\r\n//TODO test tokenissue by mobilizer\r\n//TODO test otp set by server account and otp submission by vendor account\r\n//TODO revole roles\r\n\r\npragma solidity ^0.8.16;\r\nimport \"./RahatERC20.sol\";\r\nimport \"./RahatRegistry.sol\";\r\nimport \"./RahatWallet.sol\";\r\nimport \"./RahatTriggerResponse.sol\";\r\nimport \"../libraries/AbstractERC20Func.sol\";\r\n\r\nimport \"@openzeppelin/contracts/access/AccessControl.sol\";\r\nimport \"@openzeppelin/contracts/utils/structs/EnumerableSet.sol\";\r\nimport \"@openzeppelin/contracts/utils/cryptography/ECDSA.sol\";\r\nimport \"@openzeppelin/contracts/utils/Multicall.sol\";\r\n\r\ncontract Rahat is AccessControl, AbstractERC20Func, Multicall {\r\n  using Strings for uint256;\r\n  using EnumerableSet for EnumerableSet.Bytes32Set;\r\n  using EnumerableSet for EnumerableSet.AddressSet;\r\n  using EnumerableSet for EnumerableSet.UintSet;\r\n  using ECDSA for bytes32;\r\n\r\n  //***** Events *********//\r\n  event ClaimedERC20(\r\n    address indexed vendor,\r\n    uint256 indexed beneficiary,\r\n    uint256 amount\r\n  );\r\n  event ClaimApproved(\r\n    address indexed vendor,\r\n    uint256 indexed phone,\r\n    uint256 amount\r\n  );\r\n  event IssuedERC20(\r\n    bytes32 indexed projectId,\r\n    uint256 indexed phone,\r\n    uint256 amount\r\n  );\r\n  event ClaimAcquiredERC20(\r\n    address indexed vendor,\r\n    uint256 indexed beneficiary,\r\n    uint256 amount\r\n  );\r\n  event InvalidSignature(\r\n    bytes signature,\r\n    bytes32 digest,\r\n    address expectedSigner,\r\n    address recoveredSigner\r\n  );\r\n  event Received(address, uint);\r\n\r\n  //event BalanceAdjusted(uint256 indexed phone, uint256 amount, string reason);\r\n\r\n  //***** Constant Variables (Roles) *********//\r\n  bytes32 public constant SERVER_ROLE = keccak256(\"SERVER\");\r\n  bytes32 public constant VENDOR_ROLE = keccak256(\"VENDOR\");\r\n  bytes32 public constant MANAGER_ROLE = keccak256(\"MANAGER\");\r\n  bytes32 public constant MOBILIZER_ROLE = keccak256(\"MOBILIZER\");\r\n  bytes32 public constant ISSUE_TOKEN = keccak256(\"issueToken\");\r\n  bytes32 public constant CREATE_CLAIM = keccak256(\"createClaim\");\r\n  bytes32 public constant GET_TOKENS_FROM_CLAIM = keccak256(\r\n    \"getTokensFromClaim\"\r\n  );\r\n\r\n  mapping(address => uint256) public nonces; //delegated users nonces\r\n\r\n  //***** Variables (State) *********//\r\n  //AidToken public tokenContract;\r\n  RahatERC20 public erc20;\r\n  RahatERC20 public cashToken;\r\n  RahatRegistry public registry;\r\n  RahatTriggerResponse public triggerResponse;\r\n\r\n  ///@notice track total issued tokens of each benefiicary phone\r\n  mapping(uint256 => uint256) public erc20Issued; //phone=>balance\r\n\r\n  /// @notice track balances of each beneficiary phone\r\n  mapping(uint256 => uint256) public erc20Balance; //phone=>balance\r\n\r\n  mapping(uint256 => bool) public isBanked;\r\n\r\n  /// @notice track projectBalances\r\n  //bytes32[] public projectId;\r\n  EnumerableSet.Bytes32Set private projectId;\r\n  mapping(bytes32 => uint256) public totalProjectErc20Issued;\r\n  mapping(bytes32 => uint256) public remainingProjectErc20Balances;\r\n  mapping(bytes32 => EnumerableSet.AddressSet) projectMobilizers;\r\n  EnumerableSet.AddressSet private projectVendors;\r\n\r\n  mapping(address => uint256) public erc20IssuedBy;\r\n\r\n  struct claim {\r\n    uint256 amount;\r\n    bytes32 otpHash;\r\n    bool isReleased;\r\n    uint256 date;\r\n  }\r\n  /// @dev vendorAddress => phone => claim\r\n  mapping(address => mapping(bytes32 => claim)) public recentERC20Claims;\r\n\r\n  //***** Constructor *********//\r\n  constructor(\r\n    RahatERC20 _erc20,\r\n    RahatRegistry _registry,\r\n    RahatTriggerResponse _triggerResponse,\r\n    address _admin\r\n  ) {\r\n    _setupRole(DEFAULT_ADMIN_ROLE, _admin);\r\n    owner[_admin] = true;\r\n    _setRoleAdmin(SERVER_ROLE, DEFAULT_ADMIN_ROLE);\r\n    _setRoleAdmin(VENDOR_ROLE, DEFAULT_ADMIN_ROLE);\r\n    _setRoleAdmin(MANAGER_ROLE, DEFAULT_ADMIN_ROLE);\r\n    _setRoleAdmin(MOBILIZER_ROLE, DEFAULT_ADMIN_ROLE);\r\n    erc20 = _erc20;\r\n    registry = _registry;\r\n    triggerResponse = _triggerResponse;\r\n  }\r\n\r\n  function supportsInterface(bytes4 interfaceId)\r\n    public\r\n    view\r\n    virtual\r\n    override(AccessControl)\r\n    returns (bool)\r\n  {\r\n    return super.supportsInterface(interfaceId);\r\n  }\r\n\r\n  //***** Modifiers *********//\r\n  modifier OnlyServer() {\r\n    require(\r\n      hasRole(SERVER_ROLE, msg.sender),\r\n      \"RAHAT: Sender must be an authorized server\"\r\n    );\r\n    _;\r\n  }\r\n  modifier OnlyAdmin {\r\n    require(\r\n      hasRole(DEFAULT_ADMIN_ROLE, msg.sender),\r\n      \"RAHAT: Sender must be an admin.\"\r\n    );\r\n    _;\r\n  }\r\n  modifier IsBeneficiary(uint256 _phone) {\r\n    bytes32 _benId = findHash(_phone);\r\n    require(\r\n      erc20Balance[_phone] != 0,\r\n      \"RAHAT: No any token was issued to this number\"\r\n    );\r\n    _;\r\n  }\r\n  modifier OnlyVendor {\r\n    require(\r\n      hasRole(VENDOR_ROLE, msg.sender),\r\n      \"RAHAT: Sender Must be a registered vendor.\"\r\n    );\r\n    _;\r\n  }\r\n  modifier OnlyAdminOrMobilizer {\r\n    require(\r\n      (hasRole(DEFAULT_ADMIN_ROLE, msg.sender) ||\r\n        hasRole(MOBILIZER_ROLE, msg.sender)),\r\n      \"RAHAT: Sender Must be a registered Admin Or Mobilizer.\"\r\n    );\r\n    _;\r\n  }\r\n\r\n  //***** Methods *********//\r\n  //Access Control Management\r\n  /// @notice add admin of the this contract\r\n  /// @param _account address of the new admin\r\n  function addAdmin(address _account) external OnlyAdmin {\r\n    grantRole(DEFAULT_ADMIN_ROLE, _account);\r\n    owner[_account] = true;\r\n  }\r\n\r\n  function isAdmin(address _account) external view returns(bool){\r\n    return hasRole(DEFAULT_ADMIN_ROLE, _account);\r\n  }\r\n\r\n  /// @notice add server account for this contract\r\n  /// @param _account address of the new server account\r\n  function addServer(address _account) external OnlyAdmin {\r\n    grantRole(SERVER_ROLE, _account);\r\n  }\r\n\r\n  /// @notice add vendors\r\n  /// @param _account address of the new vendor\r\n  function addVendor(address payable _account) external OnlyAdmin returns (address) {\r\n    RahatWallet vWallet;\r\n    bytes32 idHash = findHash(_account);\r\n    address vWalletAddress = registry.id2Address(idHash);\r\n    if(vWalletAddress!=address(0)){\r\n      vWallet = RahatWallet(vWalletAddress);\r\n    }\r\n    else {\r\n      vWallet = new RahatWallet(address(this));\r\n      registry.addId2AddressMap(findHash(_account), address(vWallet));\r\n    } \r\n    vWallet.addOwner(_account);\r\n    grantRole(VENDOR_ROLE, _account);\r\n    projectVendors.add(_account);\r\n    if(_account.balance < 0.1 ether){\r\n      (bool success,) = _account.call{value: 0.2 ether}(\"\");\r\n      require(success, \"Rahat needs more ether.\");\r\n    }\r\n    return address(vWallet);\r\n  }\r\n\r\n  function isVendor(address _account) public view returns(bool){\r\n    return hasRole(VENDOR_ROLE, _account);\r\n  }\r\n\r\n  function listVendors() public view returns(address[] memory){\r\n    return projectVendors.values();\r\n  }\r\n\r\n  /// @notice add vendors\r\n  /// @param _account address of the new vendor\r\n  /// @param _projectId projectId\r\n  function addMobilizer(address _account, string memory _projectId)\r\n    external\r\n    OnlyAdmin\r\n  {\r\n    bytes32 _id = findHash(_projectId);\r\n    grantRole(MOBILIZER_ROLE, _account);\r\n    projectMobilizers[_id].add(_account);\r\n  }\r\n\r\n  /// @notice set IsBanked Beneficiary\r\n  /// @param _phone beneficiary phone number\r\n  /// @param _isBanked true/false\r\n  function setAsBankedBeneficiary(uint256 _phone, bool _isBanked)\r\n    external\r\n    OnlyAdmin\r\n  {\r\n    isBanked[_phone] = _isBanked;\r\n  }\r\n\r\n  // function suspendMobilizer() public {}\r\n\r\n  // function suspendVendor() public {}\r\n\r\n  //Beneficiary Management\r\n  /// @notice suspend the benficiary by deducting all the balance beneficiary owns\r\n  /// @param _phone phone number of the Beneficiary\r\n  /// @param _projectId projectId beneficiary is involved in\r\n  function suspendBeneficiary(uint256 _phone, bytes32 _projectId)\r\n    public\r\n    OnlyAdmin\r\n    IsBeneficiary(_phone)\r\n  {\r\n    //  bytes32 _benId = findHash(_phone);\r\n\r\n    uint256 _balance = erc20Balance[_phone];\r\n    remainingProjectErc20Balances[_projectId] += _balance;\r\n    erc20Balance[_phone] = 0;\r\n    erc20Issued[_phone] = erc20Issued[_phone] - _balance;\r\n  }\r\n\r\n  /// @notice adds the token from beneficiary\r\n  function adjustTokenAdd(uint256 _phone, uint256 _amount) private {\r\n    // bytes32 _benId = findHash(_phone);\r\n    erc20Balance[_phone] = erc20Balance[_phone] + _amount;\r\n    erc20Issued[_phone] = erc20Issued[_phone] + _amount;\r\n    //emit BalanceAdjusted(_phone, _amount, _reason);\r\n  }\r\n\r\n  /// @notice deducts the token from beneficiary\r\n  function adjustTokenDeduct(uint256 _phone, uint256 _amount)\r\n    private\r\n    IsBeneficiary(_phone)\r\n  {\r\n    //bytes32 _benId = findHash(_phone);\r\n    erc20Balance[_phone] = erc20Balance[_phone] - _amount;\r\n    //emit BalanceAdjusted(_phone, _amount, _reason);\r\n  }\r\n\r\n  /// @notice update a project balance.\r\n  /// @notice called by rahatdmin contract\r\n  /// @param _projectId Id of the project to assign budget\r\n  /// @param _projectCapital amount of budget to be added to project\r\n  function updateProjectBudget(bytes32 _projectId, uint256 _projectCapital)\r\n    external\r\n  {\r\n    remainingProjectErc20Balances[_projectId] += _projectCapital;\r\n    totalProjectErc20Issued[_projectId] += _projectCapital;\r\n  }\r\n\r\n  /// @notice get the current balance of project\r\n  function getProjectBalance(bytes32 _projectId)\r\n    external\r\n    view\r\n    returns (uint256 _balance)\r\n  {\r\n    return remainingProjectErc20Balances[_projectId];\r\n  }\r\n\r\n  function verifyVendor(bytes32 _hash, bytes memory _signature)\r\n    internal\r\n    view\r\n    returns (address)\r\n  {\r\n    address _signer = _hash.recover(_signature);\r\n    require(hasRole(VENDOR_ROLE, _signer), \"Signer should be Mobilizer\");\r\n    return _signer;\r\n  }\r\n\r\n  function verifyMobilizer(bytes32 _hash, bytes memory _signature)\r\n    internal\r\n    view\r\n    returns (address)\r\n  {\r\n    address _signer = _hash.recover(_signature);\r\n    require(hasRole(MOBILIZER_ROLE, _signer), \"Signer should be Mobilizer\");\r\n    return _signer;\r\n  }\r\n\r\n  /// @notice Issue tokens to beneficiary\r\n  /// @param _projectId Id of the project beneficiary is involved in\r\n  /// @param _phone phone number of the beneficiary\r\n  /// @param _amount Amount of token to be assigned to beneficiary\r\n  function issueERC20ToBeneficiary(\r\n    string memory _projectId,\r\n    uint256 _phone,\r\n    uint256 _amount\r\n  ) public OnlyAdmin {\r\n    bytes32 _id = findHash(_projectId);\r\n\r\n    //check beneficiary in registry;\r\n    require(registry.exists(findHash(_phone)), \"Beneficiary not registered.\");\r\n    erc20IssuedBy[msg.sender] += _amount;\r\n    require(\r\n      remainingProjectErc20Balances[_id] >= _amount,\r\n      \"RAHAT: Amount is greater than remaining Project Budget\"\r\n    );\r\n    remainingProjectErc20Balances[_id] -= _amount;\r\n    adjustTokenAdd(_phone, _amount);\r\n\r\n    emit IssuedERC20(_id, _phone, _amount);\r\n  }\r\n\r\n  /// @notice request a token to beneficiary by vendor\r\n  /// @param _phone Phone number of beneficiary to whom token is requested\r\n  /// @param _tokens Number of tokens to request\r\n  function createERC20Claim(uint256 _phone, uint256 _tokens)\r\n    public\r\n    IsBeneficiary(_phone)\r\n    OnlyVendor\r\n  {\r\n    require(\r\n      triggerResponse.isLive(),\r\n      \"This response has not been activated yet, please contact admin.\"\r\n    );\r\n    require(!isBanked[_phone], \"Cannot claim from banked beneficiary\");\r\n    \r\n    _verifyVendorCashBalance(msg.sender, _tokens);\r\n\r\n    bytes32 _benId = findHash(_phone);\r\n    require(\r\n      erc20Balance[_phone] >= _tokens,\r\n      \"RAHAT: Amount requested is greater than beneficiary balance.\"\r\n    );\r\n\r\n    claim storage ac = recentERC20Claims[msg.sender][_benId];\r\n    ac.isReleased = false;\r\n    ac.amount = _tokens;\r\n    ac.date = block.timestamp;\r\n    emit ClaimedERC20(tx.origin, _phone, _tokens);\r\n  }\r\n\r\n  /// @notice Approve the requested claim from serverside and set the otp hash\r\n  /// @param _vendor Address of the vendor who requested the token from beneficiary\r\n  /// @param _phone Phone number of the beneficiary, to whom token request was sent\r\n  /// @param _otpHash Hash of OTP sent to beneficiary by server\r\n  /// @param _timeToLive Validity of OTP in seconds\r\n  function approveERC20Claim(\r\n    address _vendor,\r\n    uint256 _phone,\r\n    bytes32 _otpHash,\r\n    uint256 _timeToLive\r\n  ) public IsBeneficiary(_phone) OnlyServer {\r\n    bytes32 _benId = findHash(_phone);\r\n    claim storage ac = recentERC20Claims[_vendor][_benId];\r\n    require(ac.date != 0, \"RAHAT: Claim has not been created yet\");\r\n    require(\r\n      _timeToLive <= 86400,\r\n      \"RAHAT:Time To Live should be less than 24 hours\"\r\n    );\r\n    require(\r\n      block.timestamp <= ac.date + 86400,\r\n      \"RAHAT: Claim is older than 24 hours\"\r\n    );\r\n    require(!ac.isReleased, \"RAHAT: Claim has already been released.\");\r\n    ac.otpHash = _otpHash;\r\n    ac.isReleased = true;\r\n    ac.date = block.timestamp + _timeToLive;\r\n    emit ClaimApproved(_vendor, _phone, ac.amount);\r\n  }\r\n\r\n  /// @notice Retrieve tokens that was requested to beneficiary by entering OTP\r\n  /// @param _phone Phone Number of the beneficiary, to whom token request was sent\r\n  /// @param _otp OTP sent by the server\r\n  function getERC20FromClaim(uint256 _phone, string memory _otp)\r\n    public\r\n    IsBeneficiary(_phone)\r\n    OnlyVendor\r\n  {\r\n    bytes32 _benId = findHash(_phone);\r\n    claim storage ac = recentERC20Claims[msg.sender][_benId];\r\n    require(ac.isReleased, \"RAHAT: Claim has not been released.\");\r\n    require(ac.date >= block.timestamp, \"RAHAT: Claim has already expired.\");\r\n    bytes32 otpHash = findHash(_otp);\r\n    require(\r\n      recentERC20Claims[msg.sender][_benId].otpHash == otpHash,\r\n      \"RAHAT: OTP did not match.\"\r\n    );\r\n    adjustTokenDeduct(_phone, ac.amount);\r\n    uint256 amt = ac.amount;\r\n    ac.isReleased = false;\r\n    ac.amount = 0;\r\n    ac.date = 0;\r\n    erc20.transfer(msg.sender, amt);\r\n    _transferCashFromVendor(msg.sender, _phone, amt);\r\n    emit ClaimAcquiredERC20(msg.sender, _phone, amt);\r\n  }\r\n\r\n  /// @notice Admin function to transfer beneficiary token to vendor\r\n  /// @param _phone Phone number of beneficiary to whom token is requested\r\n  /// @param _vendorAddress vendor's address\r\n  /// @param _amount Number of tokens to request\r\n  function transferTokenToVendorByAdmin(uint256 _phone, address _vendorAddress, uint256 _amount) \r\n    public IsBeneficiary(_phone) OnlyAdmin {\r\n      require(isVendor(_vendorAddress), \"Transfer to must be vendor address\");\r\n      adjustTokenDeduct(_phone, _amount);\r\n      _transferCashFromVendor(_vendorAddress, _phone, _amount);\r\n      erc20.transfer(_vendorAddress, _amount);\r\n      emit ClaimAcquiredERC20(_vendorAddress, _phone, _amount);\r\n  }\r\n  \r\n  function transferCashToVendor(address _vendorAddress, uint _amount) public OnlyAdmin {\r\n    require(registry.exists(findHash(_vendorAddress)), \"vendor wallet not registered.\");\r\n    cashToken.approve(registry.id2Address(findHash(_vendorAddress)), _amount);\r\n  }\r\n\r\n  function _transferCashFromVendor(address _vendorAddress, uint256 _phone, uint _amount) private {\r\n    RahatWallet vendorWallet = RahatWallet(registry.id2Address(findHash(_vendorAddress)));\r\n    vendorWallet.transferToken(address(cashToken), registry.id2Address(findHash(_phone)), _amount);\r\n  }\r\n\r\n  function _verifyVendorCashBalance(address _vendorAddress, uint256 _amount) private view {\r\n    uint balance = cashToken.balanceOf(registry.id2Address(findHash(_vendorAddress)));\r\n    require(balance >= _amount, \"Vendor does not have enough cash balance.\");\r\n  } \r\n\r\n  function claimTokenForProject(address _token, address _from, bytes32 _projectId, uint256 _amount) public OnlyOwner {\r\n    if(address(cashToken) == address(0)) cashToken = RahatERC20(_token);\r\n    claimToken(_token, _from, _amount);\r\n    remainingProjectErc20Balances[_projectId] += _amount;\r\n    totalProjectErc20Issued[_projectId] += _amount;\r\n  }\r\n\r\n   function projectBalance(bytes32 _projectId, address _allowanceFrom) public view returns (uint totalBudget, uint cashAllowance, uint cashBalance, uint tokenBalance) {\r\n    cashAllowance = cashToken.allowance(address(_allowanceFrom), address(this));\r\n    cashBalance = cashToken.balanceOf(address(this));\r\n    tokenBalance = remainingProjectErc20Balances[_projectId];\r\n    totalBudget = totalProjectErc20Issued[_projectId];\r\n  }\r\n\r\n  function vendorBalance(address _vendorAddress) public view returns (address walletAddress, uint cashAllowance, uint cashBalance, uint tokenBalance) {\r\n    walletAddress = registry.id2Address(findHash(_vendorAddress));\r\n    cashAllowance = cashToken.allowance(address(this), walletAddress);\r\n    cashBalance = cashToken.balanceOf(walletAddress);\r\n    tokenBalance = erc20.balanceOf(_vendorAddress);\r\n  } \r\n\r\n  function beneficiaryBalance(uint _phone) public view returns (address walletAddress, uint cashBalance, uint tokenBalance) {\r\n    walletAddress = registry.id2Address(findHash(_phone));\r\n    cashBalance = cashToken.balanceOf(walletAddress);\r\n    tokenBalance = erc20Balance[_phone];\r\n  } \r\n\r\n  /// @notice generates the hash of the given string\r\n  /// @param _data String of which hash is to be generated\r\n  function findHash(string memory _data) public pure returns (bytes32) {\r\n    return keccak256(abi.encodePacked(_data));\r\n  }\r\n\r\n  /// @notice generates the hash of the given string\r\n  function findHash(uint256 _data) public pure returns (bytes32) {\r\n    return keccak256(abi.encodePacked(_data.toString()));\r\n  }\r\n\r\n  function findHash(address _data) public pure returns (bytes32) {\r\n    return keccak256(abi.encodePacked(_data));\r\n  }\r\n\r\n  /// @notice Generates the sum of all the integers in array\r\n  /// @param _array Array of uint\r\n  function getArraySum(uint256[] memory _array)\r\n    public\r\n    pure\r\n    returns (uint256 sum)\r\n  {\r\n    sum = 0;\r\n    for (uint256 i = 0; i < _array.length; i++) {\r\n      sum += _array[i];\r\n    }\r\n    return sum;\r\n  }\r\n\r\n  receive() external payable {\r\n      emit Received(msg.sender, msg.value);\r\n  }\r\n\r\n  function withdraw(address payable _to) public payable OnlyAdmin {\r\n        (bool sent,) = _to.call{value:address(this).balance}(\"\");\r\n        require(sent, \"Failed to send Ether\");\r\n    }\r\n}\r\n",
  "sourcePath": "S:\\Projects\\rahat\\unicef-np\\rahat-contracts\\src\\contracts\\Rahat.sol",
  "compiler": {
    "name": "solc",
    "version": "0.8.16+commit.07a7930e.Emscripten.clang"
  },
  "schemaVersion": "3.4.10",
  "updatedAt": "2022-12-01T18:50:58.262Z",
  "devdoc": {
    "kind": "dev",
    "methods": {
      "addAdmin(address)": {
        "params": {
          "_account": "address of the new admin"
        }
      },
      "addMobilizer(address,string)": {
        "params": {
          "_account": "address of the new vendor",
          "_projectId": "projectId"
        }
      },
      "addOwner(address)": {
        "params": {
          "_account": "address of new owner"
        }
      },
      "addServer(address)": {
        "params": {
          "_account": "address of the new server account"
        }
      },
      "addVendor(address)": {
        "params": {
          "_account": "address of the new vendor"
        }
      },
      "approveERC20Claim(address,uint256,bytes32,uint256)": {
        "params": {
          "_otpHash": "Hash of OTP sent to beneficiary by server",
          "_phone": "Phone number of the beneficiary, to whom token request was sent",
          "_timeToLive": "Validity of OTP in seconds",
          "_vendor": "Address of the vendor who requested the token from beneficiary"
        }
      },
      "createERC20Claim(uint256,uint256)": {
        "params": {
          "_phone": "Phone number of beneficiary to whom token is requested",
          "_tokens": "Number of tokens to request"
        }
      },
      "findHash(string)": {
        "params": {
          "_data": "String of which hash is to be generated"
        }
      },
      "getArraySum(uint256[])": {
        "params": {
          "_array": "Array of uint"
        }
      },
      "getERC20FromClaim(uint256,string)": {
        "params": {
          "_otp": "OTP sent by the server",
          "_phone": "Phone Number of the beneficiary, to whom token request was sent"
        }
      },
      "getRoleAdmin(bytes32)": {
        "details": "Returns the admin role that controls `role`. See {grantRole} and {revokeRole}. To change a role's admin, use {_setRoleAdmin}."
      },
      "grantRole(bytes32,address)": {
        "details": "Grants `role` to `account`. If `account` had not been already granted `role`, emits a {RoleGranted} event. Requirements: - the caller must have ``role``'s admin role."
      },
      "hasRole(bytes32,address)": {
        "details": "Returns `true` if `account` has been granted `role`."
      },
      "issueERC20ToBeneficiary(string,uint256,uint256)": {
        "params": {
          "_amount": "Amount of token to be assigned to beneficiary",
          "_phone": "phone number of the beneficiary",
          "_projectId": "Id of the project beneficiary is involved in"
        }
      },
      "multicall(bytes[])": {
        "details": "Receives and executes a batch of function calls on this contract."
      },
      "removeOwner(address)": {
        "params": {
          "_account": "address of existing owner"
        }
      },
      "renounceRole(bytes32,address)": {
        "details": "Revokes `role` from the calling account. Roles are often managed via {grantRole} and {revokeRole}: this function's purpose is to provide a mechanism for accounts to lose their privileges if they are compromised (such as when a trusted device is misplaced). If the calling account had been revoked `role`, emits a {RoleRevoked} event. Requirements: - the caller must be `account`."
      },
      "revokeRole(bytes32,address)": {
        "details": "Revokes `role` from `account`. If `account` had been granted `role`, emits a {RoleRevoked} event. Requirements: - the caller must have ``role``'s admin role."
      },
      "setAsBankedBeneficiary(uint256,bool)": {
        "params": {
          "_isBanked": "true/false",
          "_phone": "beneficiary phone number"
        }
      },
      "supportsInterface(bytes4)": {
        "details": "See {IERC165-supportsInterface}."
      },
      "suspendBeneficiary(uint256,bytes32)": {
        "params": {
          "_phone": "phone number of the Beneficiary",
          "_projectId": "projectId beneficiary is involved in"
        }
      },
      "transferTokenToVendorByAdmin(uint256,address,uint256)": {
        "params": {
          "_amount": "Number of tokens to request",
          "_phone": "Phone number of beneficiary to whom token is requested",
          "_vendorAddress": "vendor's address"
        }
      },
      "updateProjectBudget(bytes32,uint256)": {
        "params": {
          "_projectCapital": "amount of budget to be added to project",
          "_projectId": "Id of the project to assign budget"
        }
      }
    },
    "stateVariables": {
      "recentERC20Claims": {
        "details": "vendorAddress => phone => claim"
      }
    },
    "version": 1
  },
  "userdoc": {
    "kind": "user",
    "methods": {
      "addAdmin(address)": {
        "notice": "add admin of the this contract"
      },
      "addMobilizer(address,string)": {
        "notice": "add vendors"
      },
      "addOwner(address)": {
        "notice": "Add an account to the owner role"
      },
      "addServer(address)": {
        "notice": "add server account for this contract"
      },
      "addVendor(address)": {
        "notice": "add vendors"
      },
      "approveERC20Claim(address,uint256,bytes32,uint256)": {
        "notice": "Approve the requested claim from serverside and set the otp hash"
      },
      "createERC20Claim(uint256,uint256)": {
        "notice": "request a token to beneficiary by vendor"
      },
      "erc20Balance(uint256)": {
        "notice": "track balances of each beneficiary phone"
      },
      "erc20Issued(uint256)": {
        "notice": "track total issued tokens of each benefiicary phone"
      },
      "findHash(string)": {
        "notice": "generates the hash of the given string"
      },
      "findHash(uint256)": {
        "notice": "generates the hash of the given string"
      },
      "getArraySum(uint256[])": {
        "notice": "Generates the sum of all the integers in array"
      },
      "getERC20FromClaim(uint256,string)": {
        "notice": "Retrieve tokens that was requested to beneficiary by entering OTP"
      },
      "getProjectBalance(bytes32)": {
        "notice": "get the current balance of project"
      },
      "issueERC20ToBeneficiary(string,uint256,uint256)": {
        "notice": "Issue tokens to beneficiary"
      },
      "removeOwner(address)": {
        "notice": "Remove an account from the owner role"
      },
      "setAsBankedBeneficiary(uint256,bool)": {
        "notice": "set IsBanked Beneficiary"
      },
      "suspendBeneficiary(uint256,bytes32)": {
        "notice": "suspend the benficiary by deducting all the balance beneficiary owns"
      },
      "transferTokenToVendorByAdmin(uint256,address,uint256)": {
        "notice": "Admin function to transfer beneficiary token to vendor"
      },
      "updateProjectBudget(bytes32,uint256)": {
        "notice": "update a project balance.called by rahatdmin contract"
      }
    },
    "version": 1
  }
}