{
  "contractName": "RahatAdmin",
  "abi": [
    {
      "inputs": [
        {
          "internalType": "contract RahatERC20",
          "name": "_erc20",
          "type": "address"
        },
        {
          "internalType": "address",
          "name": "_admin",
          "type": "address"
        }
      ],
      "stateMutability": "nonpayable",
      "type": "constructor"
    },
    {
      "anonymous": false,
      "inputs": [
        {
          "indexed": false,
          "internalType": "bool",
          "name": "success",
          "type": "bool"
        }
      ],
      "name": "Minted",
      "type": "event"
    },
    {
      "anonymous": false,
      "inputs": [
        {
          "indexed": true,
          "internalType": "bytes32",
          "name": "projectId",
          "type": "bytes32"
        },
        {
          "indexed": false,
          "internalType": "uint256",
          "name": "projectCapital",
          "type": "uint256"
        },
        {
          "indexed": false,
          "internalType": "string",
          "name": "tag",
          "type": "string"
        }
      ],
      "name": "ProjectERC20BudgetUpdated",
      "type": "event"
    },
    {
      "inputs": [
        {
          "internalType": "address",
          "name": "_account",
          "type": "address"
        }
      ],
      "name": "addOwner",
      "outputs": [
        {
          "internalType": "bool",
          "name": "",
          "type": "bool"
        }
      ],
      "stateMutability": "nonpayable",
      "type": "function"
    },
    {
      "inputs": [
        {
          "internalType": "address",
          "name": "_token",
          "type": "address"
        },
        {
          "internalType": "address",
          "name": "_spender",
          "type": "address"
        },
        {
          "internalType": "uint256",
          "name": "_amount",
          "type": "uint256"
        }
      ],
      "name": "approveToken",
      "outputs": [],
      "stateMutability": "nonpayable",
      "type": "function"
    },
    {
      "inputs": [],
      "name": "cashToken",
      "outputs": [
        {
          "internalType": "contract RahatERC20",
          "name": "",
          "type": "address"
        }
      ],
      "stateMutability": "view",
      "type": "function"
    },
    {
      "inputs": [],
      "name": "erc20",
      "outputs": [
        {
          "internalType": "contract RahatERC20",
          "name": "",
          "type": "address"
        }
      ],
      "stateMutability": "view",
      "type": "function"
    },
    {
      "inputs": [
        {
          "internalType": "address",
          "name": "_token",
          "type": "address"
        },
        {
          "internalType": "address",
          "name": "_from",
          "type": "address"
        }
      ],
      "name": "getAllowanceAndBalance",
      "outputs": [
        {
          "internalType": "uint256",
          "name": "allowance",
          "type": "uint256"
        },
        {
          "internalType": "uint256",
          "name": "balance",
          "type": "uint256"
        }
      ],
      "stateMutability": "view",
      "type": "function"
    },
    {
      "inputs": [],
      "name": "listAdmins",
      "outputs": [
        {
          "internalType": "address[]",
          "name": "",
          "type": "address[]"
        }
      ],
      "stateMutability": "view",
      "type": "function"
    },
    {
      "inputs": [
        {
          "internalType": "address",
          "name": "",
          "type": "address"
        }
      ],
      "name": "owner",
      "outputs": [
        {
          "internalType": "bool",
          "name": "",
          "type": "bool"
        }
      ],
      "stateMutability": "view",
      "type": "function"
    },
    {
      "inputs": [
        {
          "internalType": "bytes32",
          "name": "",
          "type": "bytes32"
        }
      ],
      "name": "projectERC20Capital",
      "outputs": [
        {
          "internalType": "uint256",
          "name": "",
          "type": "uint256"
        }
      ],
      "stateMutability": "view",
      "type": "function"
    },
    {
      "inputs": [
        {
          "internalType": "bytes32",
          "name": "",
          "type": "bytes32"
        }
      ],
      "name": "projectExists",
      "outputs": [
        {
          "internalType": "bool",
          "name": "",
          "type": "bool"
        }
      ],
      "stateMutability": "view",
      "type": "function"
    },
    {
      "inputs": [
        {
          "internalType": "uint256",
          "name": "",
          "type": "uint256"
        }
      ],
      "name": "projectId",
      "outputs": [
        {
          "internalType": "bytes32",
          "name": "",
          "type": "bytes32"
        }
      ],
      "stateMutability": "view",
      "type": "function"
    },
    {
      "inputs": [
        {
          "internalType": "address",
          "name": "_account",
          "type": "address"
        }
      ],
      "name": "removeOwner",
      "outputs": [
        {
          "internalType": "bool",
          "name": "",
          "type": "bool"
        }
      ],
      "stateMutability": "nonpayable",
      "type": "function"
    },
    {
      "inputs": [
        {
          "internalType": "address",
          "name": "_token",
          "type": "address"
        },
        {
          "internalType": "address",
          "name": "_from",
          "type": "address"
        },
        {
          "internalType": "address",
          "name": "_to",
          "type": "address"
        },
        {
          "internalType": "uint256",
          "name": "_amount",
          "type": "uint256"
        }
      ],
      "name": "transferFromToken",
      "outputs": [],
      "stateMutability": "nonpayable",
      "type": "function"
    },
    {
      "inputs": [
        {
          "internalType": "address",
          "name": "_token",
          "type": "address"
        },
        {
          "internalType": "address",
          "name": "_to",
          "type": "address"
        },
        {
          "internalType": "uint256",
          "name": "_amount",
          "type": "uint256"
        }
      ],
      "name": "transferToken",
      "outputs": [],
      "stateMutability": "nonpayable",
      "type": "function"
    },
    {
      "inputs": [
        {
          "internalType": "address",
          "name": "rahatContract",
          "type": "address"
        },
        {
          "internalType": "string",
          "name": "_projectId",
          "type": "string"
        },
        {
          "internalType": "uint256",
          "name": "_projectCapital",
          "type": "uint256"
        }
      ],
      "name": "setProjectBudget_ERC20",
      "outputs": [],
      "stateMutability": "nonpayable",
      "type": "function"
    },
    {
      "inputs": [
        {
          "internalType": "address",
          "name": "_token",
          "type": "address"
        },
        {
          "internalType": "address",
          "name": "_from",
          "type": "address"
        },
        {
          "internalType": "uint256",
          "name": "_amount",
          "type": "uint256"
        }
      ],
      "name": "claimToken",
      "outputs": [],
      "stateMutability": "nonpayable",
      "type": "function"
    },
    {
      "inputs": [
        {
          "internalType": "address",
          "name": "_address",
          "type": "address"
        },
        {
          "internalType": "uint256",
          "name": "_amount",
          "type": "uint256"
        }
      ],
      "name": "mintERC20",
      "outputs": [],
      "stateMutability": "nonpayable",
      "type": "function"
    }
  ],
  "bytecode": "0x608060405234801561001057600080fd5b506040516111dc3803806111dc83398101604081905261002f91610082565b600380546001600160a01b0319166001600160a01b03938416179055166000908152600260205260409020805460ff191660011790556100bc565b6001600160a01b038116811461007f57600080fd5b50565b6000806040838503121561009557600080fd5b82516100a08161006a565b60208401519092506100b18161006a565b809150509250929050565b611111806100cb6000396000f3fe608060405234801561001057600080fd5b50600436106100e05760003560e01c8063785e9e8611610087578063785e9e86146101d75780637c4ca9cc146101f7578063a591afbe1461020a578063a72246871461021f578063da3e339714610232578063f5537ede14610245578063f7597a4f14610258578063fb3c0d701461027857600080fd5b8063125bfb66146100e5578063173825d9146100fa57806338975895146101225780634937b174146101455780634dd1f8161461016d57806350ae05b61461018e578063666e1b39146101a15780637065cb48146101c4575b600080fd5b6100f86100f3366004610d10565b61028b565b005b61010d610108366004610d4c565b6102ff565b60405190151581526020015b60405180910390f35b61010d610130366004610d67565b60066020526000908152604090205460ff1681565b610158610153366004610d80565b610363565b60408051928352602083019190915201610119565b61018061017b366004610d67565b610451565b604051908152602001610119565b6100f861019c366004610dc0565b610472565b61010d6101af366004610d4c565b60026020526000908152604090205460ff1681565b61010d6101d2366004610d4c565b6107cf565b6003546101ea906001600160a01b031681565b6040516101199190610e8b565b6100f8610205366004610e9f565b61082b565b6102126108cf565b6040516101199190610ec9565b6004546101ea906001600160a01b031681565b6100f8610240366004610d10565b6108e0565b6100f8610253366004610d10565b610986565b610180610266366004610d67565b60076020526000908152604090205481565b6100f8610286366004610f16565b6109e3565b3360009081526002602052604090205460ff166102c35760405162461bcd60e51b81526004016102ba90610f61565b60405180910390fd5b6004546001600160a01b03166102ef57600480546001600160a01b0319166001600160a01b0385161790555b6102fa838383610a85565b505050565b3360009081526002602052604081205460ff1661032e5760405162461bcd60e51b81526004016102ba90610f61565b6001600160a01b0382166000908152600260205260408120805460ff191690556103589083610ae4565b50600190505b919050565b604051636eb1769f60e11b81526001600160a01b038281166004830152306024830152600091829185169063dd62ed3e90604401602060405180830381865afa1580156103b4573d6000803e3d6000fd5b505050506040513d601f19601f820116820180604052508101906103d89190610fa8565b6040516370a0823160e01b81529092506001600160a01b038516906370a0823190610407903090600401610e8b565b602060405180830381865afa158015610424573d6000803e3d6000fd5b505050506040513d601f19601f820116820180604052508101906104489190610fa8565b90509250929050565b6005818154811061046157600080fd5b600091825260209091200154905081565b3360009081526002602052604090205460ff166104a15760405162461bcd60e51b81526004016102ba90610f61565b8160006104ad82610b02565b60008181526006602052604090205490915060ff16156106255760006104d285610b02565b9050836007600083815260200190815260200160002060008282546104f79190610fd7565b90915550506003546040516340c10f1960e01b81526001600160a01b03909116906340c10f199061052e9089908890600401610fea565b6020604051808303816000875af115801561054d573d6000803e3d6000fd5b505050506040513d601f19601f820116820180604052508101906105719190610fa8565b506004805460405163095ea7b360e01b81526001600160a01b039091169163095ea7b3916105a3918a91899101610fea565b6020604051808303816000875af11580156105c2573d6000803e3d6000fd5b505050506040513d601f19601f820116820180604052508101906105e69190611003565b50807ffb81835777f5c1e6fd7d6eb84fa729934ae66884bf599bb714743f575ec7b577856040516106179190611025565b60405180910390a2506107c8565b6005805460018181019092557f036b6384b5eca791c62761152d0c79bb0604c104a5fb6f4eb0703f3154bb3db0018290556000828152600660205260408120805460ff191690921790915561067985610b02565b90508360076000838152602001908152602001600020600082825461069e9190610fd7565b90915550506003546040516340c10f1960e01b81526001600160a01b03909116906340c10f19906106d59089908890600401610fea565b6020604051808303816000875af11580156106f4573d6000803e3d6000fd5b505050506040513d601f19601f820116820180604052508101906107189190610fa8565b506004805460405163095ea7b360e01b81526001600160a01b039091169163095ea7b39161074a918a91899101610fea565b6020604051808303816000875af1158015610769573d6000803e3d6000fd5b505050506040513d601f19601f8201168201806040525081019061078d9190611003565b50807ffb81835777f5c1e6fd7d6eb84fa729934ae66884bf599bb714743f575ec7b577856040516107be9190611025565b60405180910390a2505b5050505050565b3360009081526002602052604081205460ff166107fe5760405162461bcd60e51b81526004016102ba90610f61565b6001600160a01b0382166000908152600260205260408120805460ff191660011790556103589083610b32565b3360009081526002602052604090205460ff1661085a5760405162461bcd60e51b81526004016102ba90610f61565b6003546040516340c10f1960e01b81526001600160a01b03909116906340c10f199061088c9085908590600401610fea565b6020604051808303816000875af11580156108ab573d6000803e3d6000fd5b505050506040513d601f19601f820116820180604052508101906102fa9190610fa8565b60606108db6000610b47565b905090565b3360009081526002602052604090205460ff1661090f5760405162461bcd60e51b81526004016102ba90610f61565b60405163095ea7b360e01b81526001600160a01b0384169063095ea7b39061093d9085908590600401610fea565b6020604051808303816000875af115801561095c573d6000803e3d6000fd5b505050506040513d601f19601f820116820180604052508101906109809190611003565b50505050565b3360009081526002602052604090205460ff166109b55760405162461bcd60e51b81526004016102ba90610f61565b60405163a9059cbb60e01b81526001600160a01b0384169063a9059cbb9061093d9085908590600401610fea565b3360009081526002602052604090205460ff16610a125760405162461bcd60e51b81526004016102ba90610f61565b6040516323b872dd60e01b81526001600160a01b038516906323b872dd90610a4290869086908690600401611049565b6020604051808303816000875af1158015610a61573d6000803e3d6000fd5b505050506040513d601f19601f820116820180604052508101906107c89190611003565b3360009081526002602052604090205460ff16610ab45760405162461bcd60e51b81526004016102ba90610f61565b6040516323b872dd60e01b81526001600160a01b038416906323b872dd9061093d90859030908690600401611049565b6000610af9836001600160a01b038416610b5b565b90505b92915050565b600081604051602001610b15919061106d565b604051602081830303815290604052805190602001209050919050565b6000610af9836001600160a01b038416610c4e565b60606000610b5483610c9d565b9392505050565b60008181526001830160205260408120548015610c44576000610b7f60018361109c565b8554909150600090610b939060019061109c565b9050818114610bf8576000866000018281548110610bb357610bb36110af565b9060005260206000200154905080876000018481548110610bd657610bd66110af565b6000918252602080832090910192909255918252600188019052604090208390555b8554869080610c0957610c096110c5565b600190038181906000526020600020016000905590558560010160008681526020019081526020016000206000905560019350505050610afc565b6000915050610afc565b6000818152600183016020526040812054610c9557508154600181810184556000848152602080822090930184905584548482528286019093526040902091909155610afc565b506000610afc565b606081600001805480602002602001604051908101604052809291908181526020018280548015610ced57602002820191906000526020600020905b815481526020019060010190808311610cd9575b50505050509050919050565b80356001600160a01b038116811461035e57600080fd5b600080600060608486031215610d2557600080fd5b610d2e84610cf9565b9250610d3c60208501610cf9565b9150604084013590509250925092565b600060208284031215610d5e57600080fd5b610af982610cf9565b600060208284031215610d7957600080fd5b5035919050565b60008060408385031215610d9357600080fd5b610d9c83610cf9565b915061044860208401610cf9565b634e487b7160e01b600052604160045260246000fd5b600080600060608486031215610dd557600080fd5b610dde84610cf9565b9250602084013567ffffffffffffffff80821115610dfb57600080fd5b818601915086601f830112610e0f57600080fd5b813581811115610e2157610e21610daa565b604051601f8201601f19908116603f01168101908382118183101715610e4957610e49610daa565b81604052828152896020848701011115610e6257600080fd5b826020860160208301376000602084830101528096505050505050604084013590509250925092565b6001600160a01b0391909116815260200190565b60008060408385031215610eb257600080fd5b610ebb83610cf9565b946020939093013593505050565b6020808252825182820181905260009190848201906040850190845b81811015610f0a5783516001600160a01b031683529284019291840191600101610ee5565b50909695505050505050565b60008060008060808587031215610f2c57600080fd5b610f3585610cf9565b9350610f4360208601610cf9565b9250610f5160408601610cf9565b9396929550929360600135925050565b60208082526027908201527f4f6e6c79206f776e65722063616e20657865637574652074686973207472616e60408201526639b0b1ba34b7b760c91b606082015260800190565b600060208284031215610fba57600080fd5b5051919050565b634e487b7160e01b600052601160045260246000fd5b80820180821115610afc57610afc610fc1565b6001600160a01b03929092168252602082015260400190565b60006020828403121561101557600080fd5b81518015158114610b5457600080fd5b9081526040602082018190526003908201526218591960ea1b606082015260800190565b6001600160a01b039384168152919092166020820152604081019190915260600190565b6000825160005b8181101561108e5760208186018101518583015201611074565b506000920191825250919050565b81810381811115610afc57610afc610fc1565b634e487b7160e01b600052603260045260246000fd5b634e487b7160e01b600052603160045260246000fdfea26469706673582212200a812579dcd52ee34b797a3175ce6ce6972076ff3e8f55444fbc3e3b0ef9315264736f6c63430008100033",
  "immutableReferences": {},
  "source": "//SPDX-License-Identifier: LGPL-3.0\r\n\r\npragma solidity ^0.8.16;\r\n\r\nimport \"./RahatERC20.sol\";\r\nimport \"./Rahat.sol\";\r\nimport \"../libraries/AbstractERC20Func.sol\";\r\n\r\n/// @title Rahat Admin contract - owns all the tokens initially minted\r\n/// @author Rumsan Associates\r\n/// @notice You can use this contract to manage Rahat tokens and projects\r\n/// @dev All function calls are only executed by contract owner\r\ncontract RahatAdmin is AbstractERC20Func {\r\n  using EnumerableSet for EnumerableSet.UintSet;\r\n\r\n  event ProjectERC20BudgetUpdated(\r\n    bytes32 indexed projectId,\r\n    uint256 projectCapital,\r\n    string tag\r\n  );\r\n\r\n  event Minted(bool success);\r\n\r\n  // uint256 public mintData ;\r\n  // bool public mintSuccess =false;\r\n\r\n  RahatERC20 public erc20;\r\n  RahatERC20 public cashToken;\r\n\r\n  /// @notice list of projects\r\n  bytes32[] public projectId;\r\n\r\n  /// @notice check if projectId exists or not;\r\n  mapping(bytes32 => bool) public projectExists;\r\n\r\n  /// @notice assign budgets to project\r\n  mapping(bytes32 => uint256) public projectERC20Capital;\r\n\r\n  modifier CheckProject(string memory _projectId) {\r\n    bytes32 _id = findHash(_projectId);\r\n    if (projectExists[_id]) {\r\n      _;\r\n    } else {\r\n      projectId.push(_id);\r\n      projectExists[_id] = true;\r\n      _;\r\n    }\r\n  }\r\n\r\n  /// @notice All the supply is allocated to this contract\r\n  /// @dev deploys AidToken and Rahat contract by sending supply to this contract\r\n  constructor(\r\n    RahatERC20 _erc20,\r\n    address _admin\r\n  ) {\r\n    erc20 = _erc20;\r\n    owner[_admin] = true;\r\n  }\r\n\r\n  /// @notice allocate token to projects\r\n  /// @dev Allocates token to the given projectId, Creates project and transfer tokens to Rahat contract.\r\n  /// @param _projectId Unique Id of Project\r\n  /// @param _projectCapital Budget Allocated to project\r\n  function setProjectBudget_ERC20(\r\n    address rahatContract,\r\n    string memory _projectId,\r\n    uint256 _projectCapital\r\n  ) public OnlyOwner CheckProject(_projectId) {\r\n    bytes32 _id = findHash(_projectId);\r\n    projectERC20Capital[_id] += _projectCapital;\r\n    erc20.mint(rahatContract, _projectCapital);\r\n    cashToken.approve(rahatContract, _projectCapital);\r\n    emit ProjectERC20BudgetUpdated(_id, _projectCapital, \"add\");\r\n  }\r\n\r\n\r\n  function claimToken(address _token, address _from, uint256 _amount) public override OnlyOwner {\r\n    if(address(cashToken) == address(0)) cashToken = RahatERC20(_token);\r\n    super.claimToken(_token, _from, _amount);\r\n  }\r\n\r\n  /// @notice mint new tokens\r\n  /// @param _address address to send the minted tokens\r\n  /// @param _amount Amount of token to Mint\r\n  function mintERC20(address _address, uint256 _amount) public OnlyOwner {\r\n    erc20.mint(_address, _amount);\r\n  }\r\n\r\n  /// @notice generates the hash of the given string\r\n  /// @param _data String of which hash is to be generated\r\n  function findHash(string memory _data) private pure returns (bytes32) {\r\n    return keccak256(abi.encodePacked(_data));\r\n  }\r\n}\r\n",
  "sourcePath": "S:\\Projects\\rahat\\unicef-np\\rahat-contracts\\src\\contracts\\RahatAdmin.sol",
  "compiler": {
    "name": "solc",
    "version": "0.8.16+commit.07a7930e.Emscripten.clang"
  },
  "schemaVersion": "3.4.10",
  "updatedAt": "2022-12-01T18:50:58.304Z",
  "devdoc": {
    "author": "Rumsan Associates",
    "details": "All function calls are only executed by contract owner",
    "kind": "dev",
    "methods": {
      "addOwner(address)": {
        "params": {
          "_account": "address of new owner"
        }
      },
      "constructor": {
        "details": "deploys AidToken and Rahat contract by sending supply to this contract"
      },
      "mintERC20(address,uint256)": {
        "params": {
          "_address": "address to send the minted tokens",
          "_amount": "Amount of token to Mint"
        }
      },
      "removeOwner(address)": {
        "params": {
          "_account": "address of existing owner"
        }
      },
      "setProjectBudget_ERC20(address,string,uint256)": {
        "details": "Allocates token to the given projectId, Creates project and transfer tokens to Rahat contract.",
        "params": {
          "_projectCapital": "Budget Allocated to project",
          "_projectId": "Unique Id of Project"
        }
      }
    },
    "title": "Rahat Admin contract - owns all the tokens initially minted",
    "version": 1
  },
  "userdoc": {
    "kind": "user",
    "methods": {
      "addOwner(address)": {
        "notice": "Add an account to the owner role"
      },
      "constructor": {
        "notice": "All the supply is allocated to this contract"
      },
      "mintERC20(address,uint256)": {
        "notice": "mint new tokens"
      },
      "projectERC20Capital(bytes32)": {
        "notice": "assign budgets to project"
      },
      "projectExists(bytes32)": {
        "notice": "check if projectId exists or not;"
      },
      "projectId(uint256)": {
        "notice": "list of projects"
      },
      "removeOwner(address)": {
        "notice": "Remove an account from the owner role"
      },
      "setProjectBudget_ERC20(address,string,uint256)": {
        "notice": "allocate token to projects"
      }
    },
    "notice": "You can use this contract to manage Rahat tokens and projects",
    "version": 1
  }
}