{
  "contractName": "RahatERC20",
  "abi": [
    {
      "inputs": [
        {
          "internalType": "string",
          "name": "_name",
          "type": "string"
        },
        {
          "internalType": "string",
          "name": "_symbol",
          "type": "string"
        },
        {
          "internalType": "address",
          "name": "_admin",
          "type": "address"
        }
      ],
      "stateMutability": "nonpayable",
      "type": "constructor"
    },
    {
      "anonymous": false,
      "inputs": [
        {
          "indexed": true,
          "internalType": "address",
          "name": "owner",
          "type": "address"
        },
        {
          "indexed": true,
          "internalType": "address",
          "name": "spender",
          "type": "address"
        },
        {
          "indexed": false,
          "internalType": "uint256",
          "name": "value",
          "type": "uint256"
        }
      ],
      "name": "Approval",
      "type": "event"
    },
    {
      "anonymous": false,
      "inputs": [
        {
          "indexed": false,
          "internalType": "uint256",
          "name": "id",
          "type": "uint256"
        }
      ],
      "name": "Snapshot",
      "type": "event"
    },
    {
      "anonymous": false,
      "inputs": [
        {
          "indexed": true,
          "internalType": "address",
          "name": "from",
          "type": "address"
        },
        {
          "indexed": true,
          "internalType": "address",
          "name": "to",
          "type": "address"
        },
        {
          "indexed": false,
          "internalType": "uint256",
          "name": "value",
          "type": "uint256"
        }
      ],
      "name": "Transfer",
      "type": "event"
    },
    {
      "inputs": [
        {
          "internalType": "address",
          "name": "owner",
          "type": "address"
        },
        {
          "internalType": "address",
          "name": "spender",
          "type": "address"
        }
      ],
      "name": "allowance",
      "outputs": [
        {
          "internalType": "uint256",
          "name": "",
          "type": "uint256"
        }
      ],
      "stateMutability": "view",
      "type": "function"
    },
    {
      "inputs": [
        {
          "internalType": "address",
          "name": "spender",
          "type": "address"
        },
        {
          "internalType": "uint256",
          "name": "amount",
          "type": "uint256"
        }
      ],
      "name": "approve",
      "outputs": [
        {
          "internalType": "bool",
          "name": "",
          "type": "bool"
        }
      ],
      "stateMutability": "nonpayable",
      "type": "function"
    },
    {
      "inputs": [
        {
          "internalType": "address",
          "name": "account",
          "type": "address"
        }
      ],
      "name": "balanceOf",
      "outputs": [
        {
          "internalType": "uint256",
          "name": "",
          "type": "uint256"
        }
      ],
      "stateMutability": "view",
      "type": "function"
    },
    {
      "inputs": [
        {
          "internalType": "address",
          "name": "account",
          "type": "address"
        },
        {
          "internalType": "uint256",
          "name": "snapshotId",
          "type": "uint256"
        }
      ],
      "name": "balanceOfAt",
      "outputs": [
        {
          "internalType": "uint256",
          "name": "",
          "type": "uint256"
        }
      ],
      "stateMutability": "view",
      "type": "function"
    },
    {
      "inputs": [
        {
          "internalType": "uint256",
          "name": "amount",
          "type": "uint256"
        }
      ],
      "name": "burn",
      "outputs": [],
      "stateMutability": "nonpayable",
      "type": "function"
    },
    {
      "inputs": [
        {
          "internalType": "address",
          "name": "account",
          "type": "address"
        },
        {
          "internalType": "uint256",
          "name": "amount",
          "type": "uint256"
        }
      ],
      "name": "burnFrom",
      "outputs": [],
      "stateMutability": "nonpayable",
      "type": "function"
    },
    {
      "inputs": [],
      "name": "decimals",
      "outputs": [
        {
          "internalType": "uint8",
          "name": "",
          "type": "uint8"
        }
      ],
      "stateMutability": "view",
      "type": "function"
    },
    {
      "inputs": [
        {
          "internalType": "address",
          "name": "spender",
          "type": "address"
        },
        {
          "internalType": "uint256",
          "name": "subtractedValue",
          "type": "uint256"
        }
      ],
      "name": "decreaseAllowance",
      "outputs": [
        {
          "internalType": "bool",
          "name": "",
          "type": "bool"
        }
      ],
      "stateMutability": "nonpayable",
      "type": "function"
    },
    {
      "inputs": [
        {
          "internalType": "address",
          "name": "spender",
          "type": "address"
        },
        {
          "internalType": "uint256",
          "name": "addedValue",
          "type": "uint256"
        }
      ],
      "name": "increaseAllowance",
      "outputs": [
        {
          "internalType": "bool",
          "name": "",
          "type": "bool"
        }
      ],
      "stateMutability": "nonpayable",
      "type": "function"
    },
    {
      "inputs": [],
      "name": "name",
      "outputs": [
        {
          "internalType": "string",
          "name": "",
          "type": "string"
        }
      ],
      "stateMutability": "view",
      "type": "function"
    },
    {
      "inputs": [
        {
          "internalType": "address",
          "name": "",
          "type": "address"
        }
      ],
      "name": "owner",
      "outputs": [
        {
          "internalType": "bool",
          "name": "",
          "type": "bool"
        }
      ],
      "stateMutability": "view",
      "type": "function"
    },
    {
      "inputs": [],
      "name": "symbol",
      "outputs": [
        {
          "internalType": "string",
          "name": "",
          "type": "string"
        }
      ],
      "stateMutability": "view",
      "type": "function"
    },
    {
      "inputs": [],
      "name": "totalSupply",
      "outputs": [
        {
          "internalType": "uint256",
          "name": "",
          "type": "uint256"
        }
      ],
      "stateMutability": "view",
      "type": "function"
    },
    {
      "inputs": [
        {
          "internalType": "uint256",
          "name": "snapshotId",
          "type": "uint256"
        }
      ],
      "name": "totalSupplyAt",
      "outputs": [
        {
          "internalType": "uint256",
          "name": "",
          "type": "uint256"
        }
      ],
      "stateMutability": "view",
      "type": "function"
    },
    {
      "inputs": [
        {
          "internalType": "address",
          "name": "recipient",
          "type": "address"
        },
        {
          "internalType": "uint256",
          "name": "amount",
          "type": "uint256"
        }
      ],
      "name": "transfer",
      "outputs": [
        {
          "internalType": "bool",
          "name": "",
          "type": "bool"
        }
      ],
      "stateMutability": "nonpayable",
      "type": "function"
    },
    {
      "inputs": [
        {
          "internalType": "address",
          "name": "sender",
          "type": "address"
        },
        {
          "internalType": "address",
          "name": "recipient",
          "type": "address"
        },
        {
          "internalType": "uint256",
          "name": "amount",
          "type": "uint256"
        }
      ],
      "name": "transferFrom",
      "outputs": [
        {
          "internalType": "bool",
          "name": "",
          "type": "bool"
        }
      ],
      "stateMutability": "nonpayable",
      "type": "function"
    },
    {
      "inputs": [
        {
          "internalType": "address",
          "name": "_address",
          "type": "address"
        },
        {
          "internalType": "uint256",
          "name": "_amount",
          "type": "uint256"
        }
      ],
      "name": "mintERC20",
      "outputs": [
        {
          "internalType": "uint256",
          "name": "",
          "type": "uint256"
        }
      ],
      "stateMutability": "nonpayable",
      "type": "function"
    },
    {
      "inputs": [
        {
          "internalType": "address",
          "name": "_account",
          "type": "address"
        }
      ],
      "name": "addOwner",
      "outputs": [],
      "stateMutability": "nonpayable",
      "type": "function"
    }
  ],
  "bytecode": "0x60806040523480156200001157600080fd5b5060405162001767380380620017678339810160408190526200003491620003eb565b8282600362000044838262000506565b50600462000053828262000506565b5050336000818152600960205260408082208054600160ff1991821681179092556001600160a01b038716845291909220805490911690911790556200009d9150612710620000a6565b50505062000630565b6001600160a01b038216620001015760405162461bcd60e51b815260206004820152601f60248201527f45524332303a206d696e7420746f20746865207a65726f206164647265737300604482015260640160405180910390fd5b6200010f600083836200019c565b8060026000828254620001239190620005e8565b90915550506001600160a01b0382166000908152602081905260408120805483929062000152908490620005e8565b90915550506040518181526001600160a01b038316906000907fddf252ad1be2c89b69c2b068fc378daa952ba7f163c4a11628f55a4df523b3ef9060200160405180910390a35050565b620001b4838383620001b960201b620006911760201c565b505050565b620001d1838383620001b460201b6200056d1760201c565b6001600160a01b038316620001f557620001eb8262000220565b620001b462000258565b6001600160a01b0382166200020f57620001eb8362000220565b6200021a8362000220565b620001b4825b6001600160a01b038116600090815260056020908152604080832091839052909120546200025591906200026a565b6200026a565b50565b6200026860066200024f60025490565b565b600062000276620002b9565b9050806200028484620002d7565b1015620001b4578254600180820185556000858152602080822090930193909355938401805494850181558252902090910155565b6000620002d260086200032260201b620006d91760201c565b905090565b80546000908103620002eb57506000919050565b81548290620002fd9060019062000604565b815481106200031057620003106200061a565b90600052602060002001549050919050565b5490565b634e487b7160e01b600052604160045260246000fd5b600082601f8301126200034e57600080fd5b81516001600160401b03808211156200036b576200036b62000326565b604051601f8301601f19908116603f0116810190828211818310171562000396576200039662000326565b81604052838152602092508683858801011115620003b357600080fd5b600091505b83821015620003d75785820183015181830184015290820190620003b8565b600093810190920192909252949350505050565b6000806000606084860312156200040157600080fd5b83516001600160401b03808211156200041957600080fd5b62000427878388016200033c565b945060208601519150808211156200043e57600080fd5b506200044d868287016200033c565b604086015190935090506001600160a01b03811681146200046d57600080fd5b809150509250925092565b600181811c908216806200048d57607f821691505b602082108103620004ae57634e487b7160e01b600052602260045260246000fd5b50919050565b601f821115620001b457600081815260208120601f850160051c81016020861015620004dd5750805b601f850160051c820191505b81811015620004fe57828155600101620004e9565b505050505050565b81516001600160401b0381111562000522576200052262000326565b6200053a8162000533845462000478565b84620004b4565b602080601f831160018114620005725760008415620005595750858301515b600019600386901b1c1916600185901b178555620004fe565b600085815260208120601f198616915b82811015620005a35788860151825594840194600190910190840162000582565b5085821015620005c25787850151600019600388901b60f8161c191681555b5050505050600190811b01905550565b634e487b7160e01b600052601160045260246000fd5b80820180821115620005fe57620005fe620005d2565b92915050565b81810381811115620005fe57620005fe620005d2565b634e487b7160e01b600052603260045260246000fd5b61112780620006406000396000f3fe608060405234801561001057600080fd5b50600436106100f65760003560e01c80637065cb48116100925780637065cb48146101ce57806370a08231146101e157806379cc6790146101f45780637c4ca9cc1461020757806395d89b411461021a578063981b24d014610222578063a457c2d714610235578063a9059cbb14610248578063dd62ed3e1461025b57600080fd5b806306fdde03146100fb578063095ea7b31461011957806318160ddd1461013c57806323b872dd1461014e578063313ce56714610161578063395093511461017057806342966c68146101835780634ee2cd7e14610198578063666e1b39146101ab575b600080fd5b610103610294565b6040516101109190610eb0565b60405180910390f35b61012c610127366004610f15565b610326565b6040519015158152602001610110565b6002545b604051908152602001610110565b61012c61015c366004610f3f565b61033d565b60405160128152602001610110565b61012c61017e366004610f15565b6103ec565b610196610191366004610f7b565b610428565b005b6101406101a6366004610f15565b610435565b61012c6101b9366004610f94565b60096020526000908152604090205460ff1681565b6101966101dc366004610f94565b61047e565b6101406101ef366004610f94565b6104d1565b610196610202366004610f15565b6104ec565b610140610215366004610f15565b610572565b6101036105b1565b610140610230366004610f7b565b6105c0565b61012c610243366004610f15565b6105eb565b61012c610256366004610f15565b610684565b610140610269366004610faf565b6001600160a01b03918216600090815260016020908152604080832093909416825291909152205490565b6060600380546102a390610fe2565b80601f01602080910402602001604051908101604052809291908181526020018280546102cf90610fe2565b801561031c5780601f106102f15761010080835404028352916020019161031c565b820191906000526020600020905b8154815290600101906020018083116102ff57829003601f168201915b5050505050905090565b60006103333384846106dd565b5060015b92915050565b600061034a848484610801565b6001600160a01b0384166000908152600160209081526040808320338452909152902054828110156103d45760405162461bcd60e51b815260206004820152602860248201527f45524332303a207472616e7366657220616d6f756e74206578636565647320616044820152676c6c6f77616e636560c01b60648201526084015b60405180910390fd5b6103e185338584036106dd565b506001949350505050565b3360008181526001602090815260408083206001600160a01b0387168452909152812054909161033391859061042390869061102c565b6106dd565b61043233826109c9565b50565b6001600160a01b03821660009081526005602052604081208190819061045c908590610b11565b91509150816104735761046e856104d1565b610475565b805b95945050505050565b3260009081526009602052604090205460ff166104ad5760405162461bcd60e51b81526004016103cb9061103f565b6001600160a01b03166000908152600960205260409020805460ff19166001179055565b6001600160a01b031660009081526020819052604090205490565b60006104f88333610269565b9050818110156105565760405162461bcd60e51b8152602060048201526024808201527f45524332303a206275726e20616d6f756e74206578636565647320616c6c6f77604482015263616e636560e01b60648201526084016103cb565b61056383338484036106dd565b61056d83836109c9565b505050565b3260009081526009602052604081205460ff166105a15760405162461bcd60e51b81526004016103cb9061103f565b6105ab8383610c07565b50919050565b6060600480546102a390610fe2565b60008060006105d0846006610b11565b91509150816105e1576002546105e3565b805b949350505050565b3360009081526001602090815260408083206001600160a01b03861684529091528120548281101561066d5760405162461bcd60e51b815260206004820152602560248201527f45524332303a2064656372656173656420616c6c6f77616e63652062656c6f77604482015264207a65726f60d81b60648201526084016103cb565b61067a33858584036106dd565b5060019392505050565b6000610333338484610801565b6001600160a01b0383166106b0576106a882610ce0565b61056d610d0a565b6001600160a01b0382166106c7576106a883610ce0565b6106d083610ce0565b61056d82610ce0565b5490565b6001600160a01b03831661073f5760405162461bcd60e51b8152602060048201526024808201527f45524332303a20617070726f76652066726f6d20746865207a65726f206164646044820152637265737360e01b60648201526084016103cb565b6001600160a01b0382166107a05760405162461bcd60e51b815260206004820152602260248201527f45524332303a20617070726f766520746f20746865207a65726f206164647265604482015261737360f01b60648201526084016103cb565b6001600160a01b0383811660008181526001602090815260408083209487168084529482529182902085905590518481527f8c5be1e5ebec7d5bd14f71427d1e84f3dd0314c0f7b2291e5b200ac8c7c3b925910160405180910390a3505050565b6001600160a01b0383166108655760405162461bcd60e51b815260206004820152602560248201527f45524332303a207472616e736665722066726f6d20746865207a65726f206164604482015264647265737360d81b60648201526084016103cb565b6001600160a01b0382166108c75760405162461bcd60e51b815260206004820152602360248201527f45524332303a207472616e7366657220746f20746865207a65726f206164647260448201526265737360e81b60648201526084016103cb565b6108d2838383610d1a565b6001600160a01b0383166000908152602081905260409020548181101561094a5760405162461bcd60e51b815260206004820152602660248201527f45524332303a207472616e7366657220616d6f756e7420657863656564732062604482015265616c616e636560d01b60648201526084016103cb565b6001600160a01b0380851660009081526020819052604080822085850390559185168152908120805484929061098190849061102c565b92505081905550826001600160a01b0316846001600160a01b03166000805160206110d2833981519152846040516109bb91815260200190565b60405180910390a350505050565b6001600160a01b038216610a295760405162461bcd60e51b815260206004820152602160248201527f45524332303a206275726e2066726f6d20746865207a65726f206164647265736044820152607360f81b60648201526084016103cb565b610a3582600083610d1a565b6001600160a01b03821660009081526020819052604090205481811015610aa95760405162461bcd60e51b815260206004820152602260248201527f45524332303a206275726e20616d6f756e7420657863656564732062616c616e604482015261636560f01b60648201526084016103cb565b6001600160a01b0383166000908152602081905260408120838303905560028054849290610ad8908490611086565b90915550506040518281526000906001600160a01b038516906000805160206110d28339815191529060200160405180910390a3505050565b60008060008411610b5d5760405162461bcd60e51b815260206004820152601660248201527504552433230536e617073686f743a20696420697320360541b60448201526064016103cb565b610b65610d25565b841115610bb45760405162461bcd60e51b815260206004820152601d60248201527f4552433230536e617073686f743a206e6f6e6578697374656e7420696400000060448201526064016103cb565b6000610bc08486610d35565b84549091508103610bd8576000809250925050610c00565b6001846001018281548110610bef57610bef611099565b906000526020600020015492509250505b9250929050565b6001600160a01b038216610c5d5760405162461bcd60e51b815260206004820152601f60248201527f45524332303a206d696e7420746f20746865207a65726f20616464726573730060448201526064016103cb565b610c6960008383610d1a565b8060026000828254610c7b919061102c565b90915550506001600160a01b03821660009081526020819052604081208054839290610ca890849061102c565b90915550506040518181526001600160a01b038316906000906000805160206110d28339815191529060200160405180910390a35050565b6001600160a01b038116600090815260056020526040902061043290610d05836104d1565b610dfa565b610d186006610d0560025490565b565b61056d838383610691565b6000610d3060085490565b905090565b81546000908103610d4857506000610337565b82546000905b80821015610da4576000610d628383610e44565b905084868281548110610d7757610d77611099565b90600052602060002001541115610d9057809150610d9e565b610d9b81600161102c565b92505b50610d4e565b600082118015610dd957508385610dbc600185611086565b81548110610dcc57610dcc611099565b9060005260206000200154145b15610df257610de9600183611086565b92505050610337565b509050610337565b6000610e04610d25565b905080610e1084610e66565b101561056d578254600180820185556000858152602080822090930193909355938401805494850181558252902090910155565b6000610e5360028484186110af565b610e5f9084841661102c565b9392505050565b80546000908103610e7957506000919050565b81548290610e8990600190611086565b81548110610e9957610e99611099565b90600052602060002001549050919050565b919050565b600060208083528351808285015260005b81811015610edd57858101830151858201604001528201610ec1565b506000604082860101526040601f19601f8301168501019250505092915050565b80356001600160a01b0381168114610eab57600080fd5b60008060408385031215610f2857600080fd5b610f3183610efe565b946020939093013593505050565b600080600060608486031215610f5457600080fd5b610f5d84610efe565b9250610f6b60208501610efe565b9150604084013590509250925092565b600060208284031215610f8d57600080fd5b5035919050565b600060208284031215610fa657600080fd5b610e5f82610efe565b60008060408385031215610fc257600080fd5b610fcb83610efe565b9150610fd960208401610efe565b90509250929050565b600181811c90821680610ff657607f821691505b6020821081036105ab57634e487b7160e01b600052602260045260246000fd5b634e487b7160e01b600052601160045260246000fd5b8082018082111561033757610337611016565b60208082526027908201527f4f6e6c792041646d696e2063616e20657865637574652074686973207472616e60408201526639b0b1ba34b7b760c91b606082015260800190565b8181038181111561033757610337611016565b634e487b7160e01b600052603260045260246000fd5b6000826110cc57634e487b7160e01b600052601260045260246000fd5b50049056feddf252ad1be2c89b69c2b068fc378daa952ba7f163c4a11628f55a4df523b3efa2646970667358221220abd3196ebac5223abc8725206b7aba93e0ba65a5740b859bf518f89173864b7a64736f6c63430008100033",
  "immutableReferences": {},
  "source": "//SPDX-License-Identifier: LGPL-3.0\r\npragma solidity ^0.8.16;\r\n\r\n//ERC20 Tokens\r\nimport \"@openzeppelin/contracts/token/ERC20/extensions/ERC20Snapshot.sol\";\r\nimport \"@openzeppelin/contracts/token/ERC20/extensions/ERC20Burnable.sol\";\r\n\r\n//Utils\r\nimport \"@openzeppelin/contracts/access/AccessControl.sol\";\r\n\r\ncontract RahatERC20 is ERC20, ERC20Snapshot, ERC20Burnable {\r\n  ///@dev owner of the ERC20 contract\r\n  mapping(address => bool) public owner;\r\n\r\n  modifier OnlyOwner {\r\n    require(owner[tx.origin], \"Only Admin can execute this transaction\");\r\n    _;\r\n  }\r\n\r\n  constructor(\r\n    string memory _name,\r\n    string memory _symbol,\r\n    address _admin\r\n  ) ERC20(_name, _symbol) {\r\n    owner[msg.sender] = true;\r\n    owner[_admin] = true;\r\n    _mint(msg.sender, 10000);\r\n  }\r\n\r\n  ///@dev Mint x amount of ERC20 token to given address\r\n  ///@param _address Address to which ERC20 token will be minted\r\n  ///@param _amount Amount of token to be minted\r\n  function mintERC20(address _address, uint256 _amount)\r\n    public\r\n    OnlyOwner\r\n    returns (uint256)\r\n  {\r\n    _mint(_address, _amount);\r\n    return _amount;\r\n  }\r\n\r\n  function _beforeTokenTransfer(\r\n    address from,\r\n    address to,\r\n    uint256 amount\r\n  ) internal override(ERC20, ERC20Snapshot) {\r\n    super._beforeTokenTransfer(from, to, amount);\r\n  }\r\n\r\n  function addOwner(address _account) public OnlyOwner {\r\n    owner[_account] = true;\r\n  }\r\n}\r\n",
  "sourcePath": "S:\\Projects\\rahat\\unicef-np\\rahat-contracts\\src\\contracts\\RahatERC20.sol",
  "compiler": {
    "name": "solc",
    "version": "0.8.16+commit.07a7930e.Emscripten.clang"
  },
  "schemaVersion": "3.4.9",
  "updatedAt": "2022-09-11T13:00:37.792Z",
  "devdoc": {
    "kind": "dev",
    "methods": {
      "allowance(address,address)": {
        "details": "See {IERC20-allowance}."
      },
      "approve(address,uint256)": {
        "details": "See {IERC20-approve}. Requirements: - `spender` cannot be the zero address."
      },
      "balanceOf(address)": {
        "details": "See {IERC20-balanceOf}."
      },
      "balanceOfAt(address,uint256)": {
        "details": "Retrieves the balance of `account` at the time `snapshotId` was created."
      },
      "burn(uint256)": {
        "details": "Destroys `amount` tokens from the caller. See {ERC20-_burn}."
      },
      "burnFrom(address,uint256)": {
        "details": "Destroys `amount` tokens from `account`, deducting from the caller's allowance. See {ERC20-_burn} and {ERC20-allowance}. Requirements: - the caller must have allowance for ``accounts``'s tokens of at least `amount`."
      },
      "decimals()": {
        "details": "Returns the number of decimals used to get its user representation. For example, if `decimals` equals `2`, a balance of `505` tokens should be displayed to a user as `5.05` (`505 / 10 ** 2`). Tokens usually opt for a value of 18, imitating the relationship between Ether and Wei. This is the value {ERC20} uses, unless this function is overridden; NOTE: This information is only used for _display_ purposes: it in no way affects any of the arithmetic of the contract, including {IERC20-balanceOf} and {IERC20-transfer}."
      },
      "decreaseAllowance(address,uint256)": {
        "details": "Atomically decreases the allowance granted to `spender` by the caller. This is an alternative to {approve} that can be used as a mitigation for problems described in {IERC20-approve}. Emits an {Approval} event indicating the updated allowance. Requirements: - `spender` cannot be the zero address. - `spender` must have allowance for the caller of at least `subtractedValue`."
      },
      "increaseAllowance(address,uint256)": {
        "details": "Atomically increases the allowance granted to `spender` by the caller. This is an alternative to {approve} that can be used as a mitigation for problems described in {IERC20-approve}. Emits an {Approval} event indicating the updated allowance. Requirements: - `spender` cannot be the zero address."
      },
      "mintERC20(address,uint256)": {
        "details": "Mint x amount of ERC20 token to given address",
        "params": {
          "_address": "Address to which ERC20 token will be minted",
          "_amount": "Amount of token to be minted"
        }
      },
      "name()": {
        "details": "Returns the name of the token."
      },
      "symbol()": {
        "details": "Returns the symbol of the token, usually a shorter version of the name."
      },
      "totalSupply()": {
        "details": "See {IERC20-totalSupply}."
      },
      "totalSupplyAt(uint256)": {
        "details": "Retrieves the total supply at the time `snapshotId` was created."
      },
      "transfer(address,uint256)": {
        "details": "See {IERC20-transfer}. Requirements: - `recipient` cannot be the zero address. - the caller must have a balance of at least `amount`."
      },
      "transferFrom(address,address,uint256)": {
        "details": "See {IERC20-transferFrom}. Emits an {Approval} event indicating the updated allowance. This is not required by the EIP. See the note at the beginning of {ERC20}. Requirements: - `sender` and `recipient` cannot be the zero address. - `sender` must have a balance of at least `amount`. - the caller must have allowance for ``sender``'s tokens of at least `amount`."
      }
    },
    "stateVariables": {
      "owner": {
        "details": "owner of the ERC20 contract"
      }
    },
    "version": 1
  },
  "userdoc": {
    "kind": "user",
    "methods": {},
    "version": 1
  }
}